{
  "_format": "hh-sol-artifact-1",
  "contractName": "contractFactory",
  "sourceName": "contracts/factory.sol",
  "abi": [
    {
      "inputs": [],
      "stateMutability": "nonpayable",
      "type": "constructor"
    },
    {
      "inputs": [],
      "name": "LpContractAddress",
      "outputs": [
        {
          "internalType": "address",
          "name": "",
          "type": "address"
        }
      ],
      "stateMutability": "view",
      "type": "function"
    },
    {
      "inputs": [
        {
          "internalType": "address",
          "name": "_lender",
          "type": "address"
        }
      ],
      "name": "addressToindexLender",
      "outputs": [
        {
          "internalType": "uint256",
          "name": "",
          "type": "uint256"
        }
      ],
      "stateMutability": "view",
      "type": "function"
    },
    {
      "inputs": [
        {
          "internalType": "uint256",
          "name": "",
          "type": "uint256"
        }
      ],
      "name": "allContracts",
      "outputs": [
        {
          "internalType": "address",
          "name": "",
          "type": "address"
        }
      ],
      "stateMutability": "view",
      "type": "function"
    },
    {
      "inputs": [
        {
          "internalType": "address",
          "name": "",
          "type": "address"
        }
      ],
      "name": "allContractsMapping",
      "outputs": [
        {
          "internalType": "address",
          "name": "",
          "type": "address"
        }
      ],
      "stateMutability": "view",
      "type": "function"
    },
    {
      "inputs": [
        {
          "internalType": "uint256",
          "name": "newTolorance",
          "type": "uint256"
        }
      ],
      "name": "changeTolaranceBorrow",
      "outputs": [],
      "stateMutability": "nonpayable",
      "type": "function"
    },
    {
      "inputs": [
        {
          "internalType": "address",
          "name": "_addr",
          "type": "address"
        }
      ],
      "name": "contractAddressToIndex",
      "outputs": [
        {
          "internalType": "uint256",
          "name": "",
          "type": "uint256"
        }
      ],
      "stateMutability": "view",
      "type": "function"
    },
    {
      "inputs": [],
      "name": "contractBalance",
      "outputs": [
        {
          "internalType": "uint256",
          "name": "",
          "type": "uint256"
        }
      ],
      "stateMutability": "view",
      "type": "function"
    },
    {
      "inputs": [
        {
          "internalType": "address",
          "name": "_addr",
          "type": "address"
        }
      ],
      "name": "contractInfoNftLender",
      "outputs": [
        {
          "internalType": "address",
          "name": "",
          "type": "address"
        }
      ],
      "stateMutability": "view",
      "type": "function"
    },
    {
      "inputs": [
        {
          "internalType": "address",
          "name": "_nftOwner",
          "type": "address"
        },
        {
          "internalType": "address",
          "name": "_contractAddr",
          "type": "address"
        }
      ],
      "name": "contractRevoked",
      "outputs": [],
      "stateMutability": "payable",
      "type": "function"
    },
    {
      "inputs": [
        {
          "internalType": "uint256",
          "name": "indexLender",
          "type": "uint256"
        },
        {
          "internalType": "address",
          "name": "nftContract",
          "type": "address"
        },
        {
          "internalType": "uint256",
          "name": "tokenId",
          "type": "uint256"
        },
        {
          "internalType": "uint256",
          "name": "amount",
          "type": "uint256"
        }
      ],
      "name": "createContract",
      "outputs": [
        {
          "internalType": "address",
          "name": "",
          "type": "address"
        }
      ],
      "stateMutability": "nonpayable",
      "type": "function"
    },
    {
      "inputs": [
        {
          "internalType": "address",
          "name": "_nftOwner",
          "type": "address"
        },
        {
          "internalType": "uint256",
          "name": "index",
          "type": "uint256"
        }
      ],
      "name": "deadlineDeleteContract",
      "outputs": [],
      "stateMutability": "nonpayable",
      "type": "function"
    },
    {
      "inputs": [
        {
          "internalType": "uint256",
          "name": "index",
          "type": "uint256"
        }
      ],
      "name": "deletContract",
      "outputs": [],
      "stateMutability": "payable",
      "type": "function"
    },
    {
      "inputs": [
        {
          "internalType": "address",
          "name": "_nftOwner",
          "type": "address"
        },
        {
          "internalType": "address",
          "name": "_contractAddr",
          "type": "address"
        }
      ],
      "name": "desotroyingContract",
      "outputs": [],
      "stateMutability": "nonpayable",
      "type": "function"
    },
    {
      "inputs": [
        {
          "internalType": "address payable",
          "name": "newContract",
          "type": "address"
        },
        {
          "internalType": "address",
          "name": "nftContract",
          "type": "address"
        },
        {
          "internalType": "uint256",
          "name": "tokenId",
          "type": "uint256"
        },
        {
          "internalType": "uint256",
          "name": "amount",
          "type": "uint256"
        }
      ],
      "name": "fundContractBuilt",
      "outputs": [],
      "stateMutability": "nonpayable",
      "type": "function"
    },
    {
      "inputs": [
        {
          "internalType": "address payable",
          "name": "_addr",
          "type": "address"
        }
      ],
      "name": "getBalance",
      "outputs": [
        {
          "internalType": "uint256",
          "name": "",
          "type": "uint256"
        }
      ],
      "stateMutability": "nonpayable",
      "type": "function"
    },
    {
      "inputs": [],
      "name": "getTotalLPCounts",
      "outputs": [
        {
          "internalType": "uint256",
          "name": "",
          "type": "uint256"
        }
      ],
      "stateMutability": "view",
      "type": "function"
    },
    {
      "inputs": [],
      "name": "getTotalLpinfos",
      "outputs": [
        {
          "components": [
            {
              "internalType": "address",
              "name": "addr",
              "type": "address"
            },
            {
              "internalType": "uint256",
              "name": "amount",
              "type": "uint256"
            },
            {
              "internalType": "bool",
              "name": "available",
              "type": "bool"
            }
          ],
          "internalType": "struct contractFactory.liqiudityProviderDetails[]",
          "name": "",
          "type": "tuple[]"
        }
      ],
      "stateMutability": "view",
      "type": "function"
    },
    {
      "inputs": [
        {
          "internalType": "address",
          "name": "_addr",
          "type": "address"
        }
      ],
      "name": "getlpFromAddress",
      "outputs": [
        {
          "components": [
            {
              "internalType": "address",
              "name": "addr",
              "type": "address"
            },
            {
              "internalType": "uint256",
              "name": "amount",
              "type": "uint256"
            },
            {
              "internalType": "bool",
              "name": "available",
              "type": "bool"
            }
          ],
          "internalType": "struct contractFactory.liqiudityProviderDetails",
          "name": "",
          "type": "tuple"
        }
      ],
      "stateMutability": "view",
      "type": "function"
    },
    {
      "inputs": [
        {
          "internalType": "uint256",
          "name": "index",
          "type": "uint256"
        }
      ],
      "name": "indexToContactAddress",
      "outputs": [
        {
          "internalType": "address",
          "name": "",
          "type": "address"
        }
      ],
      "stateMutability": "view",
      "type": "function"
    },
    {
      "inputs": [],
      "name": "liquidityProvider",
      "outputs": [],
      "stateMutability": "payable",
      "type": "function"
    },
    {
      "inputs": [],
      "name": "showLender",
      "outputs": [
        {
          "components": [
            {
              "internalType": "address",
              "name": "addr",
              "type": "address"
            },
            {
              "internalType": "uint256",
              "name": "amount",
              "type": "uint256"
            },
            {
              "internalType": "bool",
              "name": "available",
              "type": "bool"
            }
          ],
          "internalType": "struct contractFactory.liqiudityProviderDetails",
          "name": "",
          "type": "tuple"
        }
      ],
      "stateMutability": "view",
      "type": "function"
    },
    {
      "inputs": [],
      "name": "showNftOwnerContract",
      "outputs": [
        {
          "internalType": "address",
          "name": "",
          "type": "address"
        }
      ],
      "stateMutability": "view",
      "type": "function"
    },
    {
      "inputs": [],
      "name": "totalOngoingContracts",
      "outputs": [
        {
          "internalType": "uint256",
          "name": "",
          "type": "uint256"
        }
      ],
      "stateMutability": "view",
      "type": "function"
    },
    {
      "stateMutability": "payable",
      "type": "receive"
    }
  ],
  "bytecode": "0x6080604052600a60045534801561001557600080fd5b5033600e60006101000a81548173ffffffffffffffffffffffffffffffffffffffff021916908373ffffffffffffffffffffffffffffffffffffffff160217905550614c88806100666000396000f3fe608060405260043610620001635760003560e01c80637df3967e11620000c7578063d4df3ebe1162000079578063d4df3ebe14620004ba578063d96fe02114620004fe578063e39196461462000542578063e54e26b91462000570578063f8b2cb4f14620005b4578063f9aa05e914620005f8576200016b565b80637df3967e14620003765780638b7afe2e14620003a4578063a2ae8feb14620003d4578063a35d382b1462000418578063a5ae347b146200045c578063bee86dee146200048c576200016b565b8063544d9d751162000121578063544d9d7514620002665780635b8bec5514620002965780635e0b1f6e14620002a2578063655c2a6e14620002e65780636566283714620003165780637d15bb761462000346576200016b565b806314e3c7ac146200017057806317236fc814620001905780631bd3a92214620001d45780631dd50eb014620002185780633b660bbe1462000238576200016b565b366200016b57005b600080fd5b6200018e6004803603810190620001889190620025d4565b62000628565b005b3480156200019d57600080fd5b50620001bc6004803603810190620001b6919062002656565b620008e4565b604051620001cb9190620026d9565b60405180910390f35b348015620001e157600080fd5b50620002006004803603810190620001fa9190620026f6565b62000d89565b6040516200020f919062002739565b60405180910390f35b62000236600480360381019062000230919062002756565b62000dd2565b005b3480156200024557600080fd5b506200026460048036038101906200025e919062002756565b6200109e565b005b3480156200027357600080fd5b506200027e6200113b565b6040516200028d9190620028cc565b60405180910390f35b620002a062001217565b005b348015620002af57600080fd5b50620002ce6004803603810190620002c89190620026f6565b620015dd565b604051620002dd919062002739565b60405180910390f35b348015620002f357600080fd5b50620002fe62001626565b6040516200030d9190620026d9565b60405180910390f35b3480156200032357600080fd5b506200032e6200168d565b6040516200033d919062002739565b60405180910390f35b3480156200035357600080fd5b506200035e620016a0565b6040516200036d9190620026d9565b60405180910390f35b3480156200038357600080fd5b50620003a260048036038101906200039c9190620028f0565b6200170c565b005b348015620003b157600080fd5b50620003bc62001a3b565b604051620003cb919062002739565b60405180910390f35b348015620003e157600080fd5b50620004006004803603810190620003fa9190620026f6565b62001a43565b6040516200040f91906200297f565b60405180910390f35b3480156200042557600080fd5b506200044460048036038101906200043e919062002756565b62001bd3565b604051620004539190620026d9565b60405180910390f35b3480156200046957600080fd5b506200047462001c10565b6040516200048391906200297f565b60405180910390f35b3480156200049957600080fd5b50620004b86004803603810190620004b29190620029e1565b62001da0565b005b348015620004c757600080fd5b50620004e66004803603810190620004e09190620026f6565b62001fc7565b604051620004f59190620026d9565b60405180910390f35b3480156200050b57600080fd5b506200052a6004803603810190620005249190620026f6565b62001ffa565b604051620005399190620026d9565b60405180910390f35b3480156200054f57600080fd5b506200056e6004803603810190620005689190620025d4565b62002063565b005b3480156200057d57600080fd5b506200059c600480360381019062000596919062002756565b620022ec565b604051620005ab9190620026d9565b60405180910390f35b348015620005c157600080fd5b50620005e06004803603810190620005da919062002a53565b6200232c565b604051620005ef919062002739565b60405180910390f35b3480156200060557600080fd5b50620006106200248d565b6040516200061f919062002739565b60405180910390f35b6000600a60008473ffffffffffffffffffffffffffffffffffffffff1673ffffffffffffffffffffffffffffffffffffffff16815260200190815260200160002060009054906101000a900473ffffffffffffffffffffffffffffffffffffffff1690503373ffffffffffffffffffffffffffffffffffffffff168173ffffffffffffffffffffffffffffffffffffffff1614620006fd576040517f08c379a0000000000000000000000000000000000000000000000000000000008152600401620006f49062002ae6565b60405180910390fd5b6000600960008373ffffffffffffffffffffffffffffffffffffffff1673ffffffffffffffffffffffffffffffffffffffff168152602001908152602001600020549050600d6000600583815481106200075c576200075b62002b08565b5b906000526020600020906003020160000160009054906101000a900473ffffffffffffffffffffffffffffffffffffffff1673ffffffffffffffffffffffffffffffffffffffff1673ffffffffffffffffffffffffffffffffffffffff16815260200190815260200160002060006101000a81549073ffffffffffffffffffffffffffffffffffffffff021916905560016005828154811062000804576200080362002b08565b5b906000526020600020906003020160020160006101000a81548160ff0219169083151502179055506000600b60008573ffffffffffffffffffffffffffffffffffffffff1673ffffffffffffffffffffffffffffffffffffffff1681526020019081526020016000205490506200087b8162000dd2565b600a60008673ffffffffffffffffffffffffffffffffffffffff1673ffffffffffffffffffffffffffffffffffffffff16815260200190815260200160002060006101000a81549073ffffffffffffffffffffffffffffffffffffffff02191690555050505050565b60008460006007600083815260200190815260200160002060009054906101000a900473ffffffffffffffffffffffffffffffffffffffff1690508073ffffffffffffffffffffffffffffffffffffffff163373ffffffffffffffffffffffffffffffffffffffff160362000990576040517f08c379a0000000000000000000000000000000000000000000000000000000008152600401620009879062002b87565b60405180910390fd5b600060058881548110620009a957620009a862002b08565b5b90600052602060002090600302016040518060600160405290816000820160009054906101000a900473ffffffffffffffffffffffffffffffffffffffff1673ffffffffffffffffffffffffffffffffffffffff1673ffffffffffffffffffffffffffffffffffffffff168152602001600182015481526020016002820160009054906101000a900460ff16151515158152505090506000338260000151836020015160405162000a5a9062002523565b62000a689392919062002ba9565b604051809103906000f08015801562000a85573d6000803e3d6000fd5b5090506000819080600181540180825580915050600190039060005260206000200160009091909190916101000a81548173ffffffffffffffffffffffffffffffffffffffff021916908373ffffffffffffffffffffffffffffffffffffffff16021790555080600a60003373ffffffffffffffffffffffffffffffffffffffff1673ffffffffffffffffffffffffffffffffffffffff16815260200190815260200160002060006101000a81548173ffffffffffffffffffffffffffffffffffffffff021916908373ffffffffffffffffffffffffffffffffffffffff16021790555080600c600062000b7a6003620024a0565b815260200190815260200160002060006101000a81548173ffffffffffffffffffffffffffffffffffffffff021916908373ffffffffffffffffffffffffffffffffffffffff16021790555062000bd26003620024a0565b600b60008373ffffffffffffffffffffffffffffffffffffffff1673ffffffffffffffffffffffffffffffffffffffff1681526020019081526020016000208190555062000c216003620024ae565b80600d600060058c8154811062000c3d5762000c3c62002b08565b5b906000526020600020906003020160000160009054906101000a900473ffffffffffffffffffffffffffffffffffffffff1673ffffffffffffffffffffffffffffffffffffffff1673ffffffffffffffffffffffffffffffffffffffff16815260200190815260200160002060006101000a81548173ffffffffffffffffffffffffffffffffffffffff021916908373ffffffffffffffffffffffffffffffffffffffff160217905550600060058a8154811062000d005762000cff62002b08565b5b906000526020600020906003020160020160006101000a81548160ff02191690831515021790555088600960008373ffffffffffffffffffffffffffffffffffffffff1673ffffffffffffffffffffffffffffffffffffffff1681526020019081526020016000208190555062000d7a8189898962001da0565b80945050505050949350505050565b6000600b60008373ffffffffffffffffffffffffffffffffffffffff1673ffffffffffffffffffffffffffffffffffffffff168152602001908152602001600020549050919050565b600080805490509050600080838154811062000df35762000df262002b08565b5b9060005260206000200160009054906101000a900473ffffffffffffffffffffffffffffffffffffffff16905062000e2c6003620024c4565b60018262000e3b919062002c15565b830362000ec857600080548062000e575762000e5662002c50565b5b6001900381819060005260206000200160006101000a81549073ffffffffffffffffffffffffffffffffffffffff02191690559055600c600084815260200190815260200160002060006101000a81549073ffffffffffffffffffffffffffffffffffffffff021916905562001099565b600060018362000ed9919062002c15565b8154811062000eed5762000eec62002b08565b5b9060005260206000200160009054906101000a900473ffffffffffffffffffffffffffffffffffffffff166000848154811062000f2f5762000f2e62002b08565b5b9060005260206000200160006101000a81548173ffffffffffffffffffffffffffffffffffffffff021916908373ffffffffffffffffffffffffffffffffffffffff160217905550600c600060018462000f8a919062002c15565b815260200190815260200160002060009054906101000a900473ffffffffffffffffffffffffffffffffffffffff16600c600085815260200190815260200160002060006101000a81548173ffffffffffffffffffffffffffffffffffffffff021916908373ffffffffffffffffffffffffffffffffffffffff160217905550600c60006001846200101d919062002c15565b815260200190815260200160002060006101000a81549073ffffffffffffffffffffffffffffffffffffffff0219169055600080548062001063576200106262002c50565b5b6001900381819060005260206000200160006101000a81549073ffffffffffffffffffffffffffffffffffffffff021916905590555b505050565b600e60009054906101000a900473ffffffffffffffffffffffffffffffffffffffff1673ffffffffffffffffffffffffffffffffffffffff163373ffffffffffffffffffffffffffffffffffffffff161462001131576040517f08c379a0000000000000000000000000000000000000000000000000000000008152600401620011289062002ae6565b60405180910390fd5b8060048190555050565b60606005805480602002602001604051908101604052809291908181526020016000905b828210156200120e57838290600052602060002090600302016040518060600160405290816000820160009054906101000a900473ffffffffffffffffffffffffffffffffffffffff1673ffffffffffffffffffffffffffffffffffffffff1673ffffffffffffffffffffffffffffffffffffffff168152602001600182015481526020016002820160009054906101000a900460ff161515151581525050815260200190600101906200115f565b50505050905090565b600034116200125d576040517f08c379a0000000000000000000000000000000000000000000000000000000008152600401620012549062002cf5565b60405180910390fd5b600860003373ffffffffffffffffffffffffffffffffffffffff1673ffffffffffffffffffffffffffffffffffffffff16815260200190815260200160002060009054906101000a900460ff16620014b257600060405180606001604052803373ffffffffffffffffffffffffffffffffffffffff168152602001348152602001600115158152509050600581908060018154018082558091505060019003906000526020600020906003020160009091909190915060008201518160000160006101000a81548173ffffffffffffffffffffffffffffffffffffffff021916908373ffffffffffffffffffffffffffffffffffffffff1602179055506020820151816001015560408201518160020160006101000a81548160ff0219169083151502179055505050620013926002620024ae565b60006200139e6200248d565b9050600181620013af919062002c15565b600660003373ffffffffffffffffffffffffffffffffffffffff1673ffffffffffffffffffffffffffffffffffffffff16815260200190815260200160002081905550336007600060018462001406919062002c15565b815260200190815260200160002060006101000a81548173ffffffffffffffffffffffffffffffffffffffff021916908373ffffffffffffffffffffffffffffffffffffffff1602179055506001600860003373ffffffffffffffffffffffffffffffffffffffff1673ffffffffffffffffffffffffffffffffffffffff16815260200190815260200160002060006101000a81548160ff0219169083151502179055505050620015db565b6000600660003373ffffffffffffffffffffffffffffffffffffffff1673ffffffffffffffffffffffffffffffffffffffff168152602001908152602001600020549050600581815481106200150d576200150c62002b08565b5b906000526020600020906003020160010154346005838154811062001537576200153662002b08565b5b90600052602060002090600302016001015462001555919062002d17565b1162001598576040517f08c379a00000000000000000000000000000000000000000000000000000000081526004016200158f9062002da2565b60405180910390fd5b3460058281548110620015b057620015af62002b08565b5b90600052602060002090600302016001016000828254620015d2919062002d17565b92505081905550505b565b6000600660008373ffffffffffffffffffffffffffffffffffffffff1673ffffffffffffffffffffffffffffffffffffffff168152602001908152602001600020549050919050565b6000600d60003373ffffffffffffffffffffffffffffffffffffffff1673ffffffffffffffffffffffffffffffffffffffff16815260200190815260200160002060009054906101000a900473ffffffffffffffffffffffffffffffffffffffff16905090565b60006200169b6003620024a0565b905090565b600080600a60003373ffffffffffffffffffffffffffffffffffffffff1673ffffffffffffffffffffffffffffffffffffffff16815260200190815260200160002060009054906101000a900473ffffffffffffffffffffffffffffffffffffffff1690508091505090565b60008080549050905060008083815481106200172d576200172c62002b08565b5b9060005260206000200160009054906101000a900473ffffffffffffffffffffffffffffffffffffffff169050620017666003620024c4565b60018262001775919062002c15565b83036200180257600080548062001791576200179062002c50565b5b6001900381819060005260206000200160006101000a81549073ffffffffffffffffffffffffffffffffffffffff02191690559055600c600084815260200190815260200160002060006101000a81549073ffffffffffffffffffffffffffffffffffffffff0219169055620019d3565b600060018362001813919062002c15565b8154811062001827576200182662002b08565b5b9060005260206000200160009054906101000a900473ffffffffffffffffffffffffffffffffffffffff166000848154811062001869576200186862002b08565b5b9060005260206000200160006101000a81548173ffffffffffffffffffffffffffffffffffffffff021916908373ffffffffffffffffffffffffffffffffffffffff160217905550600c6000600184620018c4919062002c15565b815260200190815260200160002060009054906101000a900473ffffffffffffffffffffffffffffffffffffffff16600c600085815260200190815260200160002060006101000a81548173ffffffffffffffffffffffffffffffffffffffff021916908373ffffffffffffffffffffffffffffffffffffffff160217905550600c600060018462001957919062002c15565b815260200190815260200160002060006101000a81549073ffffffffffffffffffffffffffffffffffffffff021916905560008054806200199d576200199c62002c50565b5b6001900381819060005260206000200160006101000a81549073ffffffffffffffffffffffffffffffffffffffff021916905590555b600a60008573ffffffffffffffffffffffffffffffffffffffff1673ffffffffffffffffffffffffffffffffffffffff16815260200190815260200160002060006101000a81549073ffffffffffffffffffffffffffffffffffffffff021916905550505050565b600047905090565b62001a4d62002531565b6000600660008473ffffffffffffffffffffffffffffffffffffffff1673ffffffffffffffffffffffffffffffffffffffff168152602001908152602001600020549050600860008473ffffffffffffffffffffffffffffffffffffffff1673ffffffffffffffffffffffffffffffffffffffff16815260200190815260200160002060009054906101000a900460ff1662001b20576040517f08c379a000000000000000000000000000000000000000000000000000000000815260040162001b179062002e14565b60405180910390fd5b6005818154811062001b375762001b3662002b08565b5b90600052602060002090600302016040518060600160405290816000820160009054906101000a900473ffffffffffffffffffffffffffffffffffffffff1673ffffffffffffffffffffffffffffffffffffffff1673ffffffffffffffffffffffffffffffffffffffff168152602001600182015481526020016002820160009054906101000a900460ff161515151581525050915050919050565b6000600c600083815260200190815260200160002060009054906101000a900473ffffffffffffffffffffffffffffffffffffffff169050919050565b62001c1a62002531565b33600860008273ffffffffffffffffffffffffffffffffffffffff1673ffffffffffffffffffffffffffffffffffffffff16815260200190815260200160002060009054906101000a900460ff1662001caa576040517f08c379a000000000000000000000000000000000000000000000000000000000815260040162001ca19062002e86565b60405180910390fd5b6000600660003373ffffffffffffffffffffffffffffffffffffffff1673ffffffffffffffffffffffffffffffffffffffff1681526020019081526020016000205490506005818154811062001d055762001d0462002b08565b5b90600052602060002090600302016040518060600160405290816000820160009054906101000a900473ffffffffffffffffffffffffffffffffffffffff1673ffffffffffffffffffffffffffffffffffffffff1673ffffffffffffffffffffffffffffffffffffffff168152602001600182015481526020016002820160009054906101000a900460ff1615151515815250509250505090565b33846000600a60008473ffffffffffffffffffffffffffffffffffffffff1673ffffffffffffffffffffffffffffffffffffffff16815260200190815260200160002060009054906101000a900473ffffffffffffffffffffffffffffffffffffffff1690508073ffffffffffffffffffffffffffffffffffffffff168273ffffffffffffffffffffffffffffffffffffffff161462001e77576040517f08c379a000000000000000000000000000000000000000000000000000000000815260040162001e6e9062002ef8565b60405180910390fd5b60008773ffffffffffffffffffffffffffffffffffffffff1685888860405160240162001ea692919062002f1a565b6040516020818303038152906040527f42e02fb4000000000000000000000000000000000000000000000000000000007bffffffffffffffffffffffffffffffffffffffffffffffffffffffff19166020820180517bffffffffffffffffffffffffffffffffffffffffffffffffffffffff838183161783525050505060405162001f32919062002fc0565b60006040518083038185875af1925050503d806000811462001f71576040519150601f19603f3d011682016040523d82523d6000602084013e62001f76565b606091505b505090508062001fbd576040517f08c379a000000000000000000000000000000000000000000000000000000000815260040162001fb49062003029565b60405180910390fd5b5050505050505050565b60016020528060005260406000206000915054906101000a900473ffffffffffffffffffffffffffffffffffffffff1681565b6000600a60008373ffffffffffffffffffffffffffffffffffffffff1673ffffffffffffffffffffffffffffffffffffffff16815260200190815260200160002060009054906101000a900473ffffffffffffffffffffffffffffffffffffffff169050919050565b6000600a60008473ffffffffffffffffffffffffffffffffffffffff1673ffffffffffffffffffffffffffffffffffffffff16815260200190815260200160002060009054906101000a900473ffffffffffffffffffffffffffffffffffffffff1690503373ffffffffffffffffffffffffffffffffffffffff168173ffffffffffffffffffffffffffffffffffffffff161462002138576040517f08c379a00000000000000000000000000000000000000000000000000000000081526004016200212f9062002ae6565b60405180910390fd5b6000600960008473ffffffffffffffffffffffffffffffffffffffff1673ffffffffffffffffffffffffffffffffffffffff16815260200190815260200160002054905060006005828154811062002195576200219462002b08565b5b906000526020600020906003020160020160006101000a81548160ff021916908315150217905550600060058281548110620021d657620021d562002b08565b5b906000526020600020906003020160010181905550600d60006005838154811062002206576200220562002b08565b5b906000526020600020906003020160000160009054906101000a900473ffffffffffffffffffffffffffffffffffffffff1673ffffffffffffffffffffffffffffffffffffffff1673ffffffffffffffffffffffffffffffffffffffff16815260200190815260200160002060006101000a81549073ffffffffffffffffffffffffffffffffffffffff02191690556000600b60008573ffffffffffffffffffffffffffffffffffffffff1673ffffffffffffffffffffffffffffffffffffffff168152602001908152602001600020549050620022e585826200170c565b5050505050565b60008181548110620022fd57600080fd5b906000526020600020016000915054906101000a900473ffffffffffffffffffffffffffffffffffffffff1681565b60008060008373ffffffffffffffffffffffffffffffffffffffff1660006040516024016040516020818303038152906040527f66bd78fd000000000000000000000000000000000000000000000000000000007bffffffffffffffffffffffffffffffffffffffffffffffffffffffff19166020820180517bffffffffffffffffffffffffffffffffffffffffffffffffffffffff8381831617835250505050604051620023dc919062002fc0565b60006040518083038185875af1925050503d80600081146200241b576040519150601f19603f3d011682016040523d82523d6000602084013e62002420565b606091505b50915091508162002468576040517f08c379a00000000000000000000000000000000000000000000000000000000081526004016200245f906200309b565b60405180910390fd5b600081806020019051810190620024809190620030d4565b9050809350505050919050565b60006200249b6002620024a0565b905090565b600081600001549050919050565b6001816000016000828254019250508190555050565b6000816000015490506000811162002513576040517f08c379a00000000000000000000000000000000000000000000000000000000081526004016200250a9062003156565b60405180910390fd5b6001810382600001819055505050565b611ada806200317983390190565b6040518060600160405280600073ffffffffffffffffffffffffffffffffffffffff168152602001600081526020016000151581525090565b600080fd5b600073ffffffffffffffffffffffffffffffffffffffff82169050919050565b60006200259c826200256f565b9050919050565b620025ae816200258f565b8114620025ba57600080fd5b50565b600081359050620025ce81620025a3565b92915050565b60008060408385031215620025ee57620025ed6200256a565b5b6000620025fe85828601620025bd565b92505060206200261185828601620025bd565b9150509250929050565b6000819050919050565b62002630816200261b565b81146200263c57600080fd5b50565b600081359050620026508162002625565b92915050565b600080600080608085870312156200267357620026726200256a565b5b600062002683878288016200263f565b94505060206200269687828801620025bd565b9350506040620026a9878288016200263f565b9250506060620026bc878288016200263f565b91505092959194509250565b620026d3816200258f565b82525050565b6000602082019050620026f06000830184620026c8565b92915050565b6000602082840312156200270f576200270e6200256a565b5b60006200271f84828501620025bd565b91505092915050565b62002733816200261b565b82525050565b600060208201905062002750600083018462002728565b92915050565b6000602082840312156200276f576200276e6200256a565b5b60006200277f848285016200263f565b91505092915050565b600081519050919050565b600082825260208201905092915050565b6000819050602082019050919050565b620027bf816200258f565b82525050565b620027d0816200261b565b82525050565b60008115159050919050565b620027ed81620027d6565b82525050565b6060820160008201516200280b6000850182620027b4565b506020820151620028206020850182620027c5565b506040820151620028356040850182620027e2565b50505050565b6000620028498383620027f3565b60608301905092915050565b6000602082019050919050565b60006200286f8262002788565b6200287b818562002793565b93506200288883620027a4565b8060005b83811015620028bf578151620028a388826200283b565b9750620028b08362002855565b9250506001810190506200288c565b5085935050505092915050565b60006020820190508181036000830152620028e8818462002862565b905092915050565b600080604083850312156200290a57620029096200256a565b5b60006200291a85828601620025bd565b92505060206200292d858286016200263f565b9150509250929050565b6060820160008201516200294f6000850182620027b4565b506020820151620029646020850182620027c5565b506040820151620029796040850182620027e2565b50505050565b600060608201905062002996600083018462002937565b92915050565b6000620029a9826200256f565b9050919050565b620029bb816200299c565b8114620029c757600080fd5b50565b600081359050620029db81620029b0565b92915050565b60008060008060808587031215620029fe57620029fd6200256a565b5b600062002a0e87828801620029ca565b945050602062002a2187828801620025bd565b935050604062002a34878288016200263f565b925050606062002a47878288016200263f565b91505092959194509250565b60006020828403121562002a6c5762002a6b6200256a565b5b600062002a7c84828501620029ca565b91505092915050565b600082825260208201905092915050565b7f6e6f7420656c696769626c650000000000000000000000000000000000000000600082015250565b600062002ace600c8362002a85565b915062002adb8262002a96565b602082019050919050565b6000602082019050818103600083015262002b018162002abf565b9050919050565b7f4e487b7100000000000000000000000000000000000000000000000000000000600052603260045260246000fd5b7f796f7572206e6f7420656c696769626c65000000000000000000000000000000600082015250565b600062002b6f60118362002a85565b915062002b7c8262002b37565b602082019050919050565b6000602082019050818103600083015262002ba28162002b60565b9050919050565b600060608201905062002bc06000830186620026c8565b62002bcf6020830185620026c8565b62002bde604083018462002728565b949350505050565b7f4e487b7100000000000000000000000000000000000000000000000000000000600052601160045260246000fd5b600062002c22826200261b565b915062002c2f836200261b565b925082820390508181111562002c4a5762002c4962002be6565b5b92915050565b7f4e487b7100000000000000000000000000000000000000000000000000000000600052603160045260246000fd5b7f6e6f7420656c696769626c6520666f72206c69717569646974792070726f766960008201527f64696e6700000000000000000000000000000000000000000000000000000000602082015250565b600062002cdd60248362002a85565b915062002cea8262002c7f565b604082019050919050565b6000602082019050818103600083015262002d108162002cce565b9050919050565b600062002d24826200261b565b915062002d31836200261b565b925082820190508082111562002d4c5762002d4b62002be6565b5b92915050565b7f696e70757420616d6f756e74206e6f742061636365707461626c650000000000600082015250565b600062002d8a601b8362002a85565b915062002d978262002d52565b602082019050919050565b6000602082019050818103600083015262002dbd8162002d7b565b9050919050565b7f6e6f207573657220466f756e6400000000000000000000000000000000000000600082015250565b600062002dfc600d8362002a85565b915062002e098262002dc4565b602082019050919050565b6000602082019050818103600083015262002e2f8162002ded565b9050919050565b7f6e6f742061206c656e6465720000000000000000000000000000000000000000600082015250565b600062002e6e600c8362002a85565b915062002e7b8262002e36565b602082019050919050565b6000602082019050818103600083015262002ea18162002e5f565b9050919050565b7f796f7572206e6f742074686520636f6e7472616374206f776e65720000000000600082015250565b600062002ee0601b8362002a85565b915062002eed8262002ea8565b602082019050919050565b6000602082019050818103600083015262002f138162002ed1565b9050919050565b600060408201905062002f316000830185620026c8565b62002f40602083018462002728565b9392505050565b600081519050919050565b600081905092915050565b60005b8381101562002f7d57808201518184015260208101905062002f60565b60008484015250505050565b600062002f968262002f47565b62002fa2818562002f52565b935062002fb481856020860162002f5d565b80840191505092915050565b600062002fce828462002f89565b915081905092915050565b7f436f6e7472616374206e6f742066756e64656400000000000000000000000000600082015250565b60006200301160138362002a85565b91506200301e8262002fd9565b602082019050919050565b60006020820190508181036000830152620030448162003002565b9050919050565b7f6e6f7420616c6c6f776564000000000000000000000000000000000000000000600082015250565b600062003083600b8362002a85565b915062003090826200304b565b602082019050919050565b60006020820190508181036000830152620030b68162003074565b9050919050565b600081519050620030ce8162002625565b92915050565b600060208284031215620030ed57620030ec6200256a565b5b6000620030fd84828501620030bd565b91505092915050565b7f436f756e7465723a2064656372656d656e74206f766572666c6f770000000000600082015250565b60006200313e601b8362002a85565b91506200314b8262003106565b602082019050919050565b6000602082019050818103600083015262003171816200312f565b905091905056fe60c06040523480156200001157600080fd5b5060405162001ada38038062001ada8339818101604052810190620000379190620001ec565b826000806101000a81548173ffffffffffffffffffffffffffffffffffffffff021916908373ffffffffffffffffffffffffffffffffffffffff16021790555081600160006101000a81548173ffffffffffffffffffffffffffffffffffffffff021916908373ffffffffffffffffffffffffffffffffffffffff160217905550806006819055503373ffffffffffffffffffffffffffffffffffffffff1660808173ffffffffffffffffffffffffffffffffffffffff16815250503073ffffffffffffffffffffffffffffffffffffffff1660a08173ffffffffffffffffffffffffffffffffffffffff1681525050624f1a004262000138919062000277565b600781905550505050620002b2565b600080fd5b600073ffffffffffffffffffffffffffffffffffffffff82169050919050565b600062000179826200014c565b9050919050565b6200018b816200016c565b81146200019757600080fd5b50565b600081519050620001ab8162000180565b92915050565b6000819050919050565b620001c681620001b1565b8114620001d257600080fd5b50565b600081519050620001e681620001bb565b92915050565b60008060006060848603121562000208576200020762000147565b5b600062000218868287016200019a565b93505060206200022b868287016200019a565b92505060406200023e86828701620001d5565b9150509250925092565b7f4e487b7100000000000000000000000000000000000000000000000000000000600052601160045260246000fd5b60006200028482620001b1565b91506200029183620001b1565b9250828201905080821115620002ac57620002ab62000248565b5b92915050565b60805160a0516117e2620002f86000396000505060008181610370015281816103fe015281816105e3015281816106260152818161072d0152610c3001526117e26000f3fe6080604052600436106101095760003560e01c8063a29b8b9111610095578063bd35638711610064578063bd356387146102cb578063d56d229d146102e2578063dd967b0b1461030d578063e3cfef6014610317578063e97ae6741461034357610109565b8063a29b8b9114610221578063a4a0d80114610238578063b84c52ef14610263578063b922f94c1461028e57610109565b80635f1c1a97116100dc5780635f1c1a971461018c57806366625bbd146101b757806366bd78fd146101c15780637f74ac15146101df578063868d68f31461020a57610109565b8063092a5cce1461010e57806339571d6e14610118578063405158451461014557806342e02fb414610170575b600080fd5b61011661036e565b005b34801561012457600080fd5b5061012d610435565b60405161013c93929190610fd5565b60405180910390f35b34801561015157600080fd5b5061015a610491565b604051610167919061100c565b60405180910390f35b61018a60048036038101906101859190611084565b6104b7565b005b34801561019857600080fd5b506101a16105c1565b6040516101ae91906110df565b60405180910390f35b6101bf6105e1565b005b6101c961061a565b6040516101d691906110fa565b60405180910390f35b3480156101eb57600080fd5b506101f4610622565b604051610201919061100c565b60405180910390f35b34801561021657600080fd5b5061021f61064a565b005b34801561022d57600080fd5b50610236610729565b005b34801561024457600080fd5b5061024d6108ab565b60405161025a91906110fa565b60405180910390f35b34801561026f57600080fd5b506102786108b5565b60405161028591906110fa565b60405180910390f35b34801561029a57600080fd5b506102b560048036038101906102b09190611115565b6108e4565b6040516102c2919061100c565b60405180910390f35b3480156102d757600080fd5b506102e0610989565b005b3480156102ee57600080fd5b506102f7610b02565b604051610304919061100c565b60405180910390f35b610315610b28565b005b34801561032357600080fd5b5061032c610dbb565b60405161033a929190611142565b60405180910390f35b34801561034f57600080fd5b50610358610dca565b604051610365919061100c565b60405180910390f35b7f000000000000000000000000000000000000000000000000000000000000000073ffffffffffffffffffffffffffffffffffffffff163373ffffffffffffffffffffffffffffffffffffffff16146103fc576040517f08c379a00000000000000000000000000000000000000000000000000000000081526004016103f3906111c8565b60405180910390fd5b7f000000000000000000000000000000000000000000000000000000000000000073ffffffffffffffffffffffffffffffffffffffff16ff5b6000806000600260009054906101000a900473ffffffffffffffffffffffffffffffffffffffff16600160009054906101000a900473ffffffffffffffffffffffffffffffffffffffff16600360010154925092509250909192565b600160009054906101000a900473ffffffffffffffffffffffffffffffffffffffff1681565b60065434146104fb576040517f08c379a00000000000000000000000000000000000000000000000000000000081526004016104f290611234565b60405180910390fd5b60405180604001604052808373ffffffffffffffffffffffffffffffffffffffff16815260200182815250600360008201518160000160006101000a81548173ffffffffffffffffffffffffffffffffffffffff021916908373ffffffffffffffffffffffffffffffffffffffff1602179055506020820151816001015590505081600260006101000a81548173ffffffffffffffffffffffffffffffffffffffff021916908373ffffffffffffffffffffffffffffffffffffffff1602179055505050565b6000806007544210156105d55760006105d8565b60015b90508091505090565b7f000000000000000000000000000000000000000000000000000000000000000073ffffffffffffffffffffffffffffffffffffffff16ff5b600047905090565b60007f0000000000000000000000000000000000000000000000000000000000000000905090565b600160009054906101000a900473ffffffffffffffffffffffffffffffffffffffff1673ffffffffffffffffffffffffffffffffffffffff163373ffffffffffffffffffffffffffffffffffffffff16146106da576040517f08c379a00000000000000000000000000000000000000000000000000000000081526004016106d1906112a0565b60405180910390fd5b60075442101561071f576040517f08c379a00000000000000000000000000000000000000000000000000000000081526004016107169061130c565b60405180910390fd5b610727610729565b565b60007f000000000000000000000000000000000000000000000000000000000000000073ffffffffffffffffffffffffffffffffffffffff1660008060009054906101000a900473ffffffffffffffffffffffffffffffffffffffff163060405160240161079892919061132c565b6040516020818303038152906040527fe3919646000000000000000000000000000000000000000000000000000000007bffffffffffffffffffffffffffffffffffffffffffffffffffffffff19166020820180517bffffffffffffffffffffffffffffffffffffffffffffffffffffffff838183161783525050505060405161082291906113c6565b60006040518083038185875af1925050503d806000811461085f576040519150601f19603f3d011682016040523d82523d6000602084013e610864565b606091505b50509050806108a8576040517f08c379a000000000000000000000000000000000000000000000000000000000815260040161089f90611429565b60405180910390fd5b50565b6000600654905090565b60006064600a6006546108c89190611478565b6108d291906114e9565b6006546108df919061151a565b905090565b6000600260009054906101000a900473ffffffffffffffffffffffffffffffffffffffff1673ffffffffffffffffffffffffffffffffffffffff16636352211e836040518263ffffffff1660e01b815260040161094191906110fa565b602060405180830381865afa15801561095e573d6000803e3d6000fd5b505050506040513d601f19601f820116820180604052508101906109829190611563565b9050919050565b3073ffffffffffffffffffffffffffffffffffffffff16600260009054906101000a900473ffffffffffffffffffffffffffffffffffffffff1673ffffffffffffffffffffffffffffffffffffffff16636352211e6003600101546040518263ffffffff1660e01b8152600401610a0091906110fa565b602060405180830381865afa158015610a1d573d6000803e3d6000fd5b505050506040513d601f19601f82011682018060405250810190610a419190611563565b73ffffffffffffffffffffffffffffffffffffffff1614610a97576040517f08c379a0000000000000000000000000000000000000000000000000000000008152600401610a8e906115dc565b60405180910390fd5b60008054906101000a900473ffffffffffffffffffffffffffffffffffffffff1673ffffffffffffffffffffffffffffffffffffffff166108fc6006549081150290604051600060405180830381858888f19350505050158015610aff573d6000803e3d6000fd5b50565b600260009054906101000a900473ffffffffffffffffffffffffffffffffffffffff1681565b60008054906101000a900473ffffffffffffffffffffffffffffffffffffffff1673ffffffffffffffffffffffffffffffffffffffff163373ffffffffffffffffffffffffffffffffffffffff1614610bb6576040517f08c379a0000000000000000000000000000000000000000000000000000000008152600401610bad90611648565b60405180910390fd5b60006064600a600654610bc99190611478565b610bd391906114e9565b600654610be0919061151a565b9050803414610c24576040517f08c379a0000000000000000000000000000000000000000000000000000000008152600401610c1b906116b4565b60405180910390fd5b610c2c610dee565b60007f0000000000000000000000000000000000000000000000000000000000000000905060008173ffffffffffffffffffffffffffffffffffffffff163460008054906101000a900473ffffffffffffffffffffffffffffffffffffffff1630604051602401610c9e92919061132c565b6040516020818303038152906040527f14e3c7ac000000000000000000000000000000000000000000000000000000007bffffffffffffffffffffffffffffffffffffffffffffffffffffffff19166020820180517bffffffffffffffffffffffffffffffffffffffffffffffffffffffff8381831617835250505050604051610d2891906113c6565b60006040518083038185875af1925050503d8060008114610d65576040519150601f19603f3d011682016040523d82523d6000602084013e610d6a565b606091505b5050905080610dae576040517f08c379a0000000000000000000000000000000000000000000000000000000008152600401610da590611720565b60405180910390fd5b610db66105e1565b505050565b60008042600754915091509091565b60008054906101000a900473ffffffffffffffffffffffffffffffffffffffff1681565b600080600260009054906101000a900473ffffffffffffffffffffffffffffffffffffffff1673ffffffffffffffffffffffffffffffffffffffff1660003060008054906101000a900473ffffffffffffffffffffffffffffffffffffffff16600360010154604051602401610e6693929190610fd5565b6040516020818303038152906040527f23b872dd000000000000000000000000000000000000000000000000000000007bffffffffffffffffffffffffffffffffffffffffffffffffffffffff19166020820180517bffffffffffffffffffffffffffffffffffffffffffffffffffffffff8381831617835250505050604051610ef091906113c6565b60006040518083038185875af1925050503d8060008114610f2d576040519150601f19603f3d011682016040523d82523d6000602084013e610f32565b606091505b509150915081610f77576040517f08c379a0000000000000000000000000000000000000000000000000000000008152600401610f6e9061178c565b60405180910390fd5b5050565b600073ffffffffffffffffffffffffffffffffffffffff82169050919050565b6000610fa682610f7b565b9050919050565b610fb681610f9b565b82525050565b6000819050919050565b610fcf81610fbc565b82525050565b6000606082019050610fea6000830186610fad565b610ff76020830185610fad565b6110046040830184610fc6565b949350505050565b60006020820190506110216000830184610fad565b92915050565b600080fd5b61103581610f9b565b811461104057600080fd5b50565b6000813590506110528161102c565b92915050565b61106181610fbc565b811461106c57600080fd5b50565b60008135905061107e81611058565b92915050565b6000806040838503121561109b5761109a611027565b5b60006110a985828601611043565b92505060206110ba8582860161106f565b9150509250929050565b60008115159050919050565b6110d9816110c4565b82525050565b60006020820190506110f460008301846110d0565b92915050565b600060208201905061110f6000830184610fc6565b92915050565b60006020828403121561112b5761112a611027565b5b60006111398482850161106f565b91505092915050565b60006040820190506111576000830185610fc6565b6111646020830184610fc6565b9392505050565b600082825260208201905092915050565b7f6e6f7420746865206f776e657200000000000000000000000000000000000000600082015250565b60006111b2600d8361116b565b91506111bd8261117c565b602082019050919050565b600060208201905081810360008301526111e1816111a5565b9050919050565b7f6e6f742073756666696363656e7420616d6f756e740000000000000000000000600082015250565b600061121e60158361116b565b9150611229826111e8565b602082019050919050565b6000602082019050818103600083015261124d81611211565b9050919050565b7f796f7572206e6f7420746865206c656e64657200000000000000000000000000600082015250565b600061128a60138361116b565b915061129582611254565b602082019050919050565b600060208201905081810360008301526112b98161127d565b9050919050565b7f646561646c696e65206e6f742072656163686564207965740000000000000000600082015250565b60006112f660188361116b565b9150611301826112c0565b602082019050919050565b60006020820190508181036000830152611325816112e9565b9050919050565b60006040820190506113416000830185610fad565b61134e6020830184610fad565b9392505050565b600081519050919050565b600081905092915050565b60005b8381101561138957808201518184015260208101905061136e565b60008484015250505050565b60006113a082611355565b6113aa8185611360565b93506113ba81856020860161136b565b80840191505092915050565b60006113d28284611395565b915081905092915050565b7f6e6f74207375636365737366756c207472616e73616374696f6e000000000000600082015250565b6000611413601a8361116b565b915061141e826113dd565b602082019050919050565b6000602082019050818103600083015261144281611406565b9050919050565b7f4e487b7100000000000000000000000000000000000000000000000000000000600052601160045260246000fd5b600061148382610fbc565b915061148e83610fbc565b925082820261149c81610fbc565b915082820484148315176114b3576114b2611449565b5b5092915050565b7f4e487b7100000000000000000000000000000000000000000000000000000000600052601260045260246000fd5b60006114f482610fbc565b91506114ff83610fbc565b92508261150f5761150e6114ba565b5b828204905092915050565b600061152582610fbc565b915061153083610fbc565b925082820190508082111561154857611547611449565b5b92915050565b60008151905061155d8161102c565b92915050565b60006020828403121561157957611578611027565b5b60006115878482850161154e565b91505092915050565b7f6e6f207472616e7366657220646f6e6500000000000000000000000000000000600082015250565b60006115c660108361116b565b91506115d182611590565b602082019050919050565b600060208201905081810360008301526115f5816115b9565b9050919050565b7f796f7572206e6f742074686520626f72726f7765720000000000000000000000600082015250565b600061163260158361116b565b915061163d826115fc565b602082019050919050565b6000602082019050818103600083015261166181611625565b9050919050565b7f696e636f6f726563742076616c75650000000000000000000000000000000000600082015250565b600061169e600f8361116b565b91506116a982611668565b602082019050919050565b600060208201905081810360008301526116cd81611691565b9050919050565b7f66616c696420746f2073656e6420457468657200000000000000000000000000600082015250565b600061170a60138361116b565b9150611715826116d4565b602082019050919050565b60006020820190508181036000830152611739816116fd565b9050919050565b7f7472616e7366657220746f206f776e6572206661696c65640000000000000000600082015250565b600061177660188361116b565b915061178182611740565b602082019050919050565b600060208201905081810360008301526117a581611769565b905091905056fea26469706673582212209789de7b1cc6f197331c5ffd37ed567e72384e04adb65034d287de31e84aee3b64736f6c63430008110033a26469706673582212200e081ac88b5cf34c69e8ad099fbc05442a0b30296a5043572a2786fea131b09e64736f6c63430008110033",
  "linkReferences": {},
  "deployedLinkReferences": {}
}