{
  "_format": "hh-sol-artifact-1",
  "contractName": "NFTMarket",
  "sourceName": "contracts/NFT_market.sol",
  "abi": [
    {
      "inputs": [],
      "stateMutability": "nonpayable",
      "type": "constructor"
    },
    {
      "anonymous": false,
      "inputs": [
        {
          "indexed": true,
          "internalType": "address",
          "name": "owner",
          "type": "address"
        },
        {
          "indexed": true,
          "internalType": "address",
          "name": "approved",
          "type": "address"
        },
        {
          "indexed": true,
          "internalType": "uint256",
          "name": "tokenId",
          "type": "uint256"
        }
      ],
      "name": "Approval",
      "type": "event"
    },
    {
      "anonymous": false,
      "inputs": [
        {
          "indexed": true,
          "internalType": "address",
          "name": "owner",
          "type": "address"
        },
        {
          "indexed": true,
          "internalType": "address",
          "name": "operator",
          "type": "address"
        },
        {
          "indexed": false,
          "internalType": "bool",
          "name": "approved",
          "type": "bool"
        }
      ],
      "name": "ApprovalForAll",
      "type": "event"
    },
    {
      "anonymous": false,
      "inputs": [
        {
          "indexed": true,
          "internalType": "address",
          "name": "previousOwner",
          "type": "address"
        },
        {
          "indexed": true,
          "internalType": "address",
          "name": "newOwner",
          "type": "address"
        }
      ],
      "name": "OwnershipTransferred",
      "type": "event"
    },
    {
      "anonymous": false,
      "inputs": [
        {
          "indexed": true,
          "internalType": "address",
          "name": "from",
          "type": "address"
        },
        {
          "indexed": true,
          "internalType": "address",
          "name": "to",
          "type": "address"
        },
        {
          "indexed": true,
          "internalType": "uint256",
          "name": "tokenId",
          "type": "uint256"
        }
      ],
      "name": "Transfer",
      "type": "event"
    },
    {
      "inputs": [
        {
          "internalType": "address",
          "name": "to",
          "type": "address"
        },
        {
          "internalType": "uint256",
          "name": "tokenId",
          "type": "uint256"
        }
      ],
      "name": "AddTokenToOwner",
      "outputs": [
        {
          "internalType": "uint256",
          "name": "",
          "type": "uint256"
        }
      ],
      "stateMutability": "nonpayable",
      "type": "function"
    },
    {
      "inputs": [
        {
          "internalType": "uint256",
          "name": "tokenId",
          "type": "uint256"
        }
      ],
      "name": "NFTPrice",
      "outputs": [
        {
          "internalType": "uint256",
          "name": "",
          "type": "uint256"
        }
      ],
      "stateMutability": "view",
      "type": "function"
    },
    {
      "inputs": [
        {
          "internalType": "string",
          "name": "tokenURIData",
          "type": "string"
        }
      ],
      "name": "NftExist",
      "outputs": [
        {
          "internalType": "bool",
          "name": "",
          "type": "bool"
        }
      ],
      "stateMutability": "view",
      "type": "function"
    },
    {
      "inputs": [
        {
          "internalType": "uint256",
          "name": "",
          "type": "uint256"
        }
      ],
      "name": "allNfts",
      "outputs": [
        {
          "internalType": "uint256",
          "name": "price",
          "type": "uint256"
        },
        {
          "internalType": "uint256",
          "name": "tokedId",
          "type": "uint256"
        },
        {
          "internalType": "address",
          "name": "creator",
          "type": "address"
        },
        {
          "internalType": "address",
          "name": "currentOwner",
          "type": "address"
        },
        {
          "internalType": "bool",
          "name": "isListed",
          "type": "bool"
        }
      ],
      "stateMutability": "view",
      "type": "function"
    },
    {
      "inputs": [
        {
          "internalType": "address",
          "name": "to",
          "type": "address"
        },
        {
          "internalType": "uint256",
          "name": "tokenId",
          "type": "uint256"
        }
      ],
      "name": "approve",
      "outputs": [],
      "stateMutability": "nonpayable",
      "type": "function"
    },
    {
      "inputs": [
        {
          "internalType": "address",
          "name": "owner",
          "type": "address"
        }
      ],
      "name": "balanceOf",
      "outputs": [
        {
          "internalType": "uint256",
          "name": "",
          "type": "uint256"
        }
      ],
      "stateMutability": "view",
      "type": "function"
    },
    {
      "inputs": [
        {
          "internalType": "uint256",
          "name": "tokenId",
          "type": "uint256"
        }
      ],
      "name": "burnToken",
      "outputs": [],
      "stateMutability": "nonpayable",
      "type": "function"
    },
    {
      "inputs": [
        {
          "internalType": "uint256",
          "name": "tokenId",
          "type": "uint256"
        }
      ],
      "name": "buyNFT",
      "outputs": [],
      "stateMutability": "payable",
      "type": "function"
    },
    {
      "inputs": [],
      "name": "getAllNfts",
      "outputs": [
        {
          "components": [
            {
              "internalType": "uint256",
              "name": "price",
              "type": "uint256"
            },
            {
              "internalType": "uint256",
              "name": "tokedId",
              "type": "uint256"
            },
            {
              "internalType": "address",
              "name": "creator",
              "type": "address"
            },
            {
              "internalType": "address",
              "name": "currentOwner",
              "type": "address"
            },
            {
              "internalType": "bool",
              "name": "isListed",
              "type": "bool"
            }
          ],
          "internalType": "struct NFTMarket.NFTItem[]",
          "name": "",
          "type": "tuple[]"
        }
      ],
      "stateMutability": "view",
      "type": "function"
    },
    {
      "inputs": [
        {
          "internalType": "uint256",
          "name": "tokenId",
          "type": "uint256"
        }
      ],
      "name": "getApproved",
      "outputs": [
        {
          "internalType": "address",
          "name": "",
          "type": "address"
        }
      ],
      "stateMutability": "view",
      "type": "function"
    },
    {
      "inputs": [
        {
          "internalType": "uint256",
          "name": "NFTId",
          "type": "uint256"
        }
      ],
      "name": "getNFTindex",
      "outputs": [
        {
          "internalType": "uint256",
          "name": "",
          "type": "uint256"
        }
      ],
      "stateMutability": "view",
      "type": "function"
    },
    {
      "inputs": [
        {
          "internalType": "uint256",
          "name": "NFTId",
          "type": "uint256"
        }
      ],
      "name": "getNftById",
      "outputs": [
        {
          "components": [
            {
              "internalType": "uint256",
              "name": "price",
              "type": "uint256"
            },
            {
              "internalType": "uint256",
              "name": "tokedId",
              "type": "uint256"
            },
            {
              "internalType": "address",
              "name": "creator",
              "type": "address"
            },
            {
              "internalType": "address",
              "name": "currentOwner",
              "type": "address"
            },
            {
              "internalType": "bool",
              "name": "isListed",
              "type": "bool"
            }
          ],
          "internalType": "struct NFTMarket.NFTItem",
          "name": "",
          "type": "tuple"
        }
      ],
      "stateMutability": "view",
      "type": "function"
    },
    {
      "inputs": [],
      "name": "getOwnedNFTIndexs",
      "outputs": [
        {
          "internalType": "uint256[]",
          "name": "",
          "type": "uint256[]"
        }
      ],
      "stateMutability": "view",
      "type": "function"
    },
    {
      "inputs": [],
      "name": "getOwnedTokens",
      "outputs": [
        {
          "components": [
            {
              "internalType": "uint256",
              "name": "price",
              "type": "uint256"
            },
            {
              "internalType": "uint256",
              "name": "tokedId",
              "type": "uint256"
            },
            {
              "internalType": "address",
              "name": "creator",
              "type": "address"
            },
            {
              "internalType": "address",
              "name": "currentOwner",
              "type": "address"
            },
            {
              "internalType": "bool",
              "name": "isListed",
              "type": "bool"
            }
          ],
          "internalType": "struct NFTMarket.NFTItem[]",
          "name": "",
          "type": "tuple[]"
        }
      ],
      "stateMutability": "view",
      "type": "function"
    },
    {
      "inputs": [
        {
          "internalType": "address",
          "name": "owner",
          "type": "address"
        },
        {
          "internalType": "address",
          "name": "operator",
          "type": "address"
        }
      ],
      "name": "isApprovedForAll",
      "outputs": [
        {
          "internalType": "bool",
          "name": "",
          "type": "bool"
        }
      ],
      "stateMutability": "view",
      "type": "function"
    },
    {
      "inputs": [
        {
          "internalType": "uint256",
          "name": "tokenId",
          "type": "uint256"
        },
        {
          "internalType": "uint256",
          "name": "newPrice",
          "type": "uint256"
        }
      ],
      "name": "listNFT",
      "outputs": [],
      "stateMutability": "payable",
      "type": "function"
    },
    {
      "inputs": [
        {
          "internalType": "uint256",
          "name": "price",
          "type": "uint256"
        },
        {
          "internalType": "string",
          "name": "tokenURIData",
          "type": "string"
        }
      ],
      "name": "mintToken",
      "outputs": [],
      "stateMutability": "payable",
      "type": "function"
    },
    {
      "inputs": [],
      "name": "name",
      "outputs": [
        {
          "internalType": "string",
          "name": "",
          "type": "string"
        }
      ],
      "stateMutability": "view",
      "type": "function"
    },
    {
      "inputs": [],
      "name": "owner",
      "outputs": [
        {
          "internalType": "address",
          "name": "",
          "type": "address"
        }
      ],
      "stateMutability": "view",
      "type": "function"
    },
    {
      "inputs": [
        {
          "internalType": "uint256",
          "name": "tokenId",
          "type": "uint256"
        }
      ],
      "name": "ownerOf",
      "outputs": [
        {
          "internalType": "address",
          "name": "",
          "type": "address"
        }
      ],
      "stateMutability": "view",
      "type": "function"
    },
    {
      "inputs": [],
      "name": "renounceOwnership",
      "outputs": [],
      "stateMutability": "nonpayable",
      "type": "function"
    },
    {
      "inputs": [
        {
          "internalType": "address",
          "name": "from",
          "type": "address"
        },
        {
          "internalType": "address",
          "name": "to",
          "type": "address"
        },
        {
          "internalType": "uint256",
          "name": "tokenId",
          "type": "uint256"
        }
      ],
      "name": "safeTransferFrom",
      "outputs": [],
      "stateMutability": "nonpayable",
      "type": "function"
    },
    {
      "inputs": [
        {
          "internalType": "address",
          "name": "from",
          "type": "address"
        },
        {
          "internalType": "address",
          "name": "to",
          "type": "address"
        },
        {
          "internalType": "uint256",
          "name": "tokenId",
          "type": "uint256"
        },
        {
          "internalType": "bytes",
          "name": "data",
          "type": "bytes"
        }
      ],
      "name": "safeTransferFrom",
      "outputs": [],
      "stateMutability": "nonpayable",
      "type": "function"
    },
    {
      "inputs": [
        {
          "internalType": "address",
          "name": "operator",
          "type": "address"
        },
        {
          "internalType": "bool",
          "name": "approved",
          "type": "bool"
        }
      ],
      "name": "setApprovalForAll",
      "outputs": [],
      "stateMutability": "nonpayable",
      "type": "function"
    },
    {
      "inputs": [
        {
          "internalType": "uint256",
          "name": "newListingPrice",
          "type": "uint256"
        }
      ],
      "name": "setListingPrice",
      "outputs": [],
      "stateMutability": "nonpayable",
      "type": "function"
    },
    {
      "inputs": [
        {
          "internalType": "bytes4",
          "name": "interfaceId",
          "type": "bytes4"
        }
      ],
      "name": "supportsInterface",
      "outputs": [
        {
          "internalType": "bool",
          "name": "",
          "type": "bool"
        }
      ],
      "stateMutability": "view",
      "type": "function"
    },
    {
      "inputs": [],
      "name": "symbol",
      "outputs": [
        {
          "internalType": "string",
          "name": "",
          "type": "string"
        }
      ],
      "stateMutability": "view",
      "type": "function"
    },
    {
      "inputs": [
        {
          "internalType": "uint256",
          "name": "tokenId",
          "type": "uint256"
        }
      ],
      "name": "testing",
      "outputs": [
        {
          "internalType": "uint256",
          "name": "",
          "type": "uint256"
        }
      ],
      "stateMutability": "view",
      "type": "function"
    },
    {
      "inputs": [
        {
          "internalType": "uint256",
          "name": "tokenId",
          "type": "uint256"
        }
      ],
      "name": "tokenURI",
      "outputs": [
        {
          "internalType": "string",
          "name": "",
          "type": "string"
        }
      ],
      "stateMutability": "view",
      "type": "function"
    },
    {
      "inputs": [],
      "name": "totalSupply",
      "outputs": [
        {
          "internalType": "uint256",
          "name": "",
          "type": "uint256"
        }
      ],
      "stateMutability": "view",
      "type": "function"
    },
    {
      "inputs": [
        {
          "internalType": "address",
          "name": "from",
          "type": "address"
        },
        {
          "internalType": "address",
          "name": "to",
          "type": "address"
        },
        {
          "internalType": "uint256",
          "name": "tokenId",
          "type": "uint256"
        }
      ],
      "name": "transferFrom",
      "outputs": [],
      "stateMutability": "nonpayable",
      "type": "function"
    },
    {
      "inputs": [
        {
          "internalType": "address",
          "name": "newOwner",
          "type": "address"
        }
      ],
      "name": "transferOwnership",
      "outputs": [],
      "stateMutability": "nonpayable",
      "type": "function"
    },
    {
      "inputs": [
        {
          "internalType": "uint256",
          "name": "tokenId",
          "type": "uint256"
        }
      ],
      "name": "unlistNft",
      "outputs": [],
      "stateMutability": "nonpayable",
      "type": "function"
    }
  ],
  "bytecode": "0x60806040526658d15e176280006010553480156200001c57600080fd5b506040518060400160405280600d81526020017f6f63746f437265617475726573000000000000000000000000000000000000008152506040518060400160405280600481526020017f4f43544b0000000000000000000000000000000000000000000000000000000081525081600090816200009a91906200041d565b508060019081620000ac91906200041d565b505050620000cf620000c3620000d560201b60201c565b620000dd60201b60201c565b62000504565b600033905090565b6000600760009054906101000a900473ffffffffffffffffffffffffffffffffffffffff16905081600760006101000a81548173ffffffffffffffffffffffffffffffffffffffff021916908373ffffffffffffffffffffffffffffffffffffffff1602179055508173ffffffffffffffffffffffffffffffffffffffff168173ffffffffffffffffffffffffffffffffffffffff167f8be0079c531659141344cd1fd0a4f28419497f9722a3daafe3b4186f6b6457e060405160405180910390a35050565b600081519050919050565b7f4e487b7100000000000000000000000000000000000000000000000000000000600052604160045260246000fd5b7f4e487b7100000000000000000000000000000000000000000000000000000000600052602260045260246000fd5b600060028204905060018216806200022557607f821691505b6020821081036200023b576200023a620001dd565b5b50919050565b60008190508160005260206000209050919050565b60006020601f8301049050919050565b600082821b905092915050565b600060088302620002a57fffffffffffffffffffffffffffffffffffffffffffffffffffffffffffffffff8262000266565b620002b1868362000266565b95508019841693508086168417925050509392505050565b6000819050919050565b6000819050919050565b6000620002fe620002f8620002f284620002c9565b620002d3565b620002c9565b9050919050565b6000819050919050565b6200031a83620002dd565b62000332620003298262000305565b84845462000273565b825550505050565b600090565b620003496200033a565b620003568184846200030f565b505050565b5b818110156200037e57620003726000826200033f565b6001810190506200035c565b5050565b601f821115620003cd57620003978162000241565b620003a28462000256565b81016020851015620003b2578190505b620003ca620003c18562000256565b8301826200035b565b50505b505050565b600082821c905092915050565b6000620003f260001984600802620003d2565b1980831691505092915050565b60006200040d8383620003df565b9150826002028217905092915050565b6200042882620001a3565b67ffffffffffffffff811115620004445762000443620001ae565b5b6200045082546200020c565b6200045d82828562000382565b600060209050601f83116001811462000495576000841562000480578287015190505b6200048c8582620003ff565b865550620004fc565b601f198416620004a58662000241565b60005b82811015620004cf57848901518255600182019150602085019450602081019050620004a8565b86831015620004ef5784890151620004eb601f891682620003df565b8355505b6001600288020188555050505b505050505050565b6155c380620005146000396000f3fe6080604052600436106101ee5760003560e01c8063752312a91161010d5780639e75689c116100a0578063c529de651161006f578063c529de65146106f8578063c87b56dd14610739578063cc79fc2314610776578063e985e9c5146107b3578063f2fde38b146107f0576101ee565b80639e75689c14610640578063a22cb46514610669578063b88d4fde14610692578063bc26c61c146106bb576101ee565b80638da5cb5b116100dc5780638da5cb5b1461059157806394383f14146105bc57806395a81b8f146105d857806395d89b4114610615576101ee565b8063752312a9146104e65780637b47ec1a146105025780637c726b691461052b578063878e9ef414610554576101ee565b8063495bc4f5116101855780636c30f765116101545780636c30f7651461042a57806370a0823114610467578063715018a6146104a4578063732e8d73146104bb576101ee565b8063495bc4f51461036957806351ed8288146103a657806360820d80146103c25780636352211e146103ed576101ee565b806318160ddd116101c157806318160ddd146102c157806323892380146102ec57806323b872dd1461031757806342842e0e14610340576101ee565b806301ffc9a7146101f357806306fdde0314610230578063081812fc1461025b578063095ea7b314610298575b600080fd5b3480156101ff57600080fd5b5061021a60048036038101906102159190613979565b610819565b60405161022791906139c1565b60405180910390f35b34801561023c57600080fd5b506102456108fb565b6040516102529190613a6c565b60405180910390f35b34801561026757600080fd5b50610282600480360381019061027d9190613ac4565b61098d565b60405161028f9190613b32565b60405180910390f35b3480156102a457600080fd5b506102bf60048036038101906102ba9190613b79565b6109d3565b005b3480156102cd57600080fd5b506102d6610aea565b6040516102e39190613bc8565b60405180910390f35b3480156102f857600080fd5b50610301610af7565b60405161030e9190613ca1565b60405180910390f35b34801561032357600080fd5b5061033e60048036038101906103399190613cc3565b610c41565b005b34801561034c57600080fd5b5061036760048036038101906103629190613cc3565b610ca1565b005b34801561037557600080fd5b50610390600480360381019061038b9190613ac4565b610cc1565b60405161039d9190613bc8565b60405180910390f35b6103c060048036038101906103bb9190613ac4565b610cde565b005b3480156103ce57600080fd5b506103d7610e1c565b6040516103e49190613e4b565b60405180910390f35b3480156103f957600080fd5b50610414600480360381019061040f9190613ac4565b6110aa565b6040516104219190613b32565b60405180910390f35b34801561043657600080fd5b50610451600480360381019061044c9190613ac4565b611130565b60405161045e9190613bc8565b60405180910390f35b34801561047357600080fd5b5061048e60048036038101906104899190613e6d565b611152565b60405161049b9190613bc8565b60405180910390f35b3480156104b057600080fd5b506104b9611209565b005b3480156104c757600080fd5b506104d061121d565b6040516104dd9190613e4b565b60405180910390f35b61050060048036038101906104fb9190613fcf565b611357565b005b34801561050e57600080fd5b5061052960048036038101906105249190613ac4565b61143b565b005b34801561053757600080fd5b50610552600480360381019061054d9190613ac4565b6114c9565b005b34801561056057600080fd5b5061057b60048036038101906105769190613b79565b61151e565b6040516105889190613bc8565b60405180910390f35b34801561059d57600080fd5b506105a66115a3565b6040516105b39190613b32565b60405180910390f35b6105d660048036038101906105d1919061402b565b6115cd565b005b3480156105e457600080fd5b506105ff60048036038101906105fa9190613ac4565b61174f565b60405161060c91906140d3565b60405180910390f35b34801561062157600080fd5b5061062a6118a3565b6040516106379190613a6c565b60405180910390f35b34801561064c57600080fd5b5061066760048036038101906106629190613ac4565b611935565b005b34801561067557600080fd5b50610690600480360381019061068b919061411a565b611a05565b005b34801561069e57600080fd5b506106b960048036038101906106b491906141fb565b611a1b565b005b3480156106c757600080fd5b506106e260048036038101906106dd9190613ac4565b611a7d565b6040516106ef9190613bc8565b60405180910390f35b34801561070457600080fd5b5061071f600480360381019061071a9190613ac4565b611a9d565b60405161073095949392919061427e565b60405180910390f35b34801561074557600080fd5b50610760600480360381019061075b9190613ac4565b611b30565b60405161076d9190613a6c565b60405180910390f35b34801561078257600080fd5b5061079d600480360381019061079891906142d1565b611c42565b6040516107aa91906139c1565b60405180910390f35b3480156107bf57600080fd5b506107da60048036038101906107d5919061431a565b611c7e565b6040516107e791906139c1565b60405180910390f35b3480156107fc57600080fd5b5061081760048036038101906108129190613e6d565b611d12565b005b60007f80ac58cd000000000000000000000000000000000000000000000000000000007bffffffffffffffffffffffffffffffffffffffffffffffffffffffff1916827bffffffffffffffffffffffffffffffffffffffffffffffffffffffff191614806108e457507f5b5e139f000000000000000000000000000000000000000000000000000000007bffffffffffffffffffffffffffffffffffffffffffffffffffffffff1916827bffffffffffffffffffffffffffffffffffffffffffffffffffffffff1916145b806108f457506108f382611d95565b5b9050919050565b60606000805461090a90614389565b80601f016020809104026020016040519081016040528092919081815260200182805461093690614389565b80156109835780601f1061095857610100808354040283529160200191610983565b820191906000526020600020905b81548152906001019060200180831161096657829003601f168201915b5050505050905090565b600061099882611dff565b6004600083815260200190815260200160002060009054906101000a900473ffffffffffffffffffffffffffffffffffffffff169050919050565b60006109de826110aa565b90508073ffffffffffffffffffffffffffffffffffffffff168373ffffffffffffffffffffffffffffffffffffffff1603610a4e576040517f08c379a0000000000000000000000000000000000000000000000000000000008152600401610a459061442c565b60405180910390fd5b8073ffffffffffffffffffffffffffffffffffffffff16610a6d611e4a565b73ffffffffffffffffffffffffffffffffffffffff161480610a9c5750610a9b81610a96611e4a565b611c7e565b5b610adb576040517f08c379a0000000000000000000000000000000000000000000000000000000008152600401610ad2906144be565b60405180910390fd5b610ae58383611e52565b505050565b6000600f80549050905090565b60606000610b0433611152565b9050600033905060008211610b4e576040517f08c379a0000000000000000000000000000000000000000000000000000000008152600401610b459061452a565b60405180910390fd5b6000610b5982611152565b905060008167ffffffffffffffff811115610b7757610b76613ea4565b5b604051908082528060200260200182016040528015610ba55781602001602082028036833780820191505090505b50905060005b82811015610c3657600d60003373ffffffffffffffffffffffffffffffffffffffff1673ffffffffffffffffffffffffffffffffffffffff168152602001908152602001600020600082815260200190815260200160002054828281518110610c1757610c1661454a565b5b6020026020010181815250508080610c2e906145a8565b915050610bab565b508094505050505090565b610c52610c4c611e4a565b82611f0b565b610c91576040517f08c379a0000000000000000000000000000000000000000000000000000000008152600401610c8890614662565b60405180910390fd5b610c9c838383611fa0565b505050565b610cbc83838360405180602001604052806000815250611a1b565b505050565b6000600b6000838152602001908152602001600020549050919050565b6000610ce982612299565b90503373ffffffffffffffffffffffffffffffffffffffff168173ffffffffffffffffffffffffffffffffffffffff1603610d59576040517f08c379a0000000000000000000000000000000000000000000000000000000008152600401610d50906146ce565b60405180910390fd5b600a6000838152602001908152602001600020600001543414610db1576040517f08c379a0000000000000000000000000000000000000000000000000000000008152600401610da89061473a565b60405180910390fd5b610dbc813384611fa0565b610dc78133846122d6565b610dd16008612944565b8073ffffffffffffffffffffffffffffffffffffffff166108fc349081150290604051600060405180830381858888f19350505050158015610e17573d6000803e3d6000fd5b505050565b606060003390506000806000610e3184611152565b11610e71576040517f08c379a0000000000000000000000000000000000000000000000000000000008152600401610e689061452a565b60405180910390fd5b6000610e7c84611152565b905060008167ffffffffffffffff811115610e9a57610e99613ea4565b5b604051908082528060200260200182016040528015610ed357816020015b610ec06138b0565b815260200190600190039081610eb85790505b5090505b8184101561109f578473ffffffffffffffffffffffffffffffffffffffff16600f8481548110610f0a57610f0961454a565b5b906000526020600020906004020160030160009054906101000a900473ffffffffffffffffffffffffffffffffffffffff1673ffffffffffffffffffffffffffffffffffffffff160361108c57600f8381548110610f6b57610f6a61454a565b5b90600052602060002090600402016040518060a001604052908160008201548152602001600182015481526020016002820160009054906101000a900473ffffffffffffffffffffffffffffffffffffffff1673ffffffffffffffffffffffffffffffffffffffff1673ffffffffffffffffffffffffffffffffffffffff1681526020016003820160009054906101000a900473ffffffffffffffffffffffffffffffffffffffff1673ffffffffffffffffffffffffffffffffffffffff1673ffffffffffffffffffffffffffffffffffffffff1681526020016003820160149054906101000a900460ff1615151515815250508185815181106110725761107161454a565b5b60200260200101819052508380611088906145a8565b9450505b8280611097906145a8565b935050610ed7565b809550505050505090565b6000806110b683612299565b9050600073ffffffffffffffffffffffffffffffffffffffff168173ffffffffffffffffffffffffffffffffffffffff1603611127576040517f08c379a000000000000000000000000000000000000000000000000000000000815260040161111e906147a6565b60405180910390fd5b80915050919050565b600080600b600084815260200190815260200160002054905080915050919050565b60008073ffffffffffffffffffffffffffffffffffffffff168273ffffffffffffffffffffffffffffffffffffffff16036111c2576040517f08c379a00000000000000000000000000000000000000000000000000000000081526004016111b990614838565b60405180910390fd5b600360008373ffffffffffffffffffffffffffffffffffffffff1673ffffffffffffffffffffffffffffffffffffffff168152602001908152602001600020549050919050565b6112116129a0565b61121b6000612a1e565b565b6060600f805480602002602001604051908101604052809291908181526020016000905b8282101561134e57838290600052602060002090600402016040518060a001604052908160008201548152602001600182015481526020016002820160009054906101000a900473ffffffffffffffffffffffffffffffffffffffff1673ffffffffffffffffffffffffffffffffffffffff1673ffffffffffffffffffffffffffffffffffffffff1681526020016003820160009054906101000a900473ffffffffffffffffffffffffffffffffffffffff1673ffffffffffffffffffffffffffffffffffffffff1673ffffffffffffffffffffffffffffffffffffffff1681526020016003820160149054906101000a900460ff16151515158152505081526020019060010190611241565b50505050905090565b6658d15e1762800034146113a0576040517f08c379a0000000000000000000000000000000000000000000000000000000008152600401611397906148a4565b60405180910390fd5b6113a981611c42565b156113e9576040517f08c379a00000000000000000000000000000000000000000000000000000000081526004016113e090614910565b60405180910390fd5b6113f36008612ae4565b6113fd6009612ae4565b60006114096008612afa565b90506114153382612b08565b61141f8183612b26565b61142a338483612b93565b611436600033836122d6565b505050565b3373ffffffffffffffffffffffffffffffffffffffff1661145b826110aa565b73ffffffffffffffffffffffffffffffffffffffff16146114b1576040517f08c379a00000000000000000000000000000000000000000000000000000000081526004016114a89061497c565b60405180910390fd5b6114ba81612cc6565b6114c6336000836122d6565b50565b6114d16129a0565b60018111611514576040517f08c379a000000000000000000000000000000000000000000000000000000000815260040161150b90614a0e565b60405180910390fd5b8060108190555050565b60008061152a84611152565b905082600d60008673ffffffffffffffffffffffffffffffffffffffff1673ffffffffffffffffffffffffffffffffffffffff16815260200190815260200160002060008381526020019081526020016000208190555080600e6000858152602001908152602001600020819055508091505092915050565b6000600760009054906101000a900473ffffffffffffffffffffffffffffffffffffffff16905090565b6010543414611611576040517f08c379a000000000000000000000000000000000000000000000000000000000815260040161160890614a7a565b60405180910390fd5b61161a826110aa565b73ffffffffffffffffffffffffffffffffffffffff163373ffffffffffffffffffffffffffffffffffffffff1614611687576040517f08c379a000000000000000000000000000000000000000000000000000000000815260040161167e90614b0c565b60405180910390fd5b600081116116ca576040517f08c379a00000000000000000000000000000000000000000000000000000000081526004016116c190614b78565b60405180910390fd5b6000600b60008481526020019081526020016000205490506001600f82815481106116f8576116f761454a565b5b906000526020600020906004020160030160146101000a81548160ff02191690831515021790555081600f82815481106117355761173461454a565b5b906000526020600020906004020160000181905550505050565b6117576138b0565b6117616009612afa565b8211156117a3576040517f08c379a000000000000000000000000000000000000000000000000000000000815260040161179a90614be4565b60405180910390fd5b600a60008381526020019081526020016000206040518060a001604052908160008201548152602001600182015481526020016002820160009054906101000a900473ffffffffffffffffffffffffffffffffffffffff1673ffffffffffffffffffffffffffffffffffffffff1673ffffffffffffffffffffffffffffffffffffffff1681526020016003820160009054906101000a900473ffffffffffffffffffffffffffffffffffffffff1673ffffffffffffffffffffffffffffffffffffffff1673ffffffffffffffffffffffffffffffffffffffff1681526020016003820160149054906101000a900460ff1615151515815250509050919050565b6060600180546118b290614389565b80601f01602080910402602001604051908101604052809291908181526020018280546118de90614389565b801561192b5780601f106119005761010080835404028352916020019161192b565b820191906000526020600020905b81548152906001019060200180831161190e57829003601f168201915b5050505050905090565b61193e816110aa565b73ffffffffffffffffffffffffffffffffffffffff163373ffffffffffffffffffffffffffffffffffffffff16146119ab576040517f08c379a00000000000000000000000000000000000000000000000000000000081526004016119a290614b0c565b60405180910390fd5b6000600b60008381526020019081526020016000205490506000600f82815481106119d9576119d861454a565b5b906000526020600020906004020160030160146101000a81548160ff0219169083151502179055505050565b611a17611a10611e4a565b8383612e14565b5050565b611a2c611a26611e4a565b83611f0b565b611a6b576040517f08c379a0000000000000000000000000000000000000000000000000000000008152600401611a6290614662565b60405180910390fd5b611a7784848484612f80565b50505050565b6000600a6000838152602001908152602001600020600001549050919050565b600f8181548110611aad57600080fd5b90600052602060002090600402016000915090508060000154908060010154908060020160009054906101000a900473ffffffffffffffffffffffffffffffffffffffff16908060030160009054906101000a900473ffffffffffffffffffffffffffffffffffffffff16908060030160149054906101000a900460ff16905085565b6060611b3b82611dff565b6000600660008481526020019081526020016000208054611b5b90614389565b80601f0160208091040260200160405190810160405280929190818152602001828054611b8790614389565b8015611bd45780601f10611ba957610100808354040283529160200191611bd4565b820191906000526020600020905b815481529060010190602001808311611bb757829003601f168201915b505050505090506000611be5612fdc565b90506000815103611bfa578192505050611c3d565b600082511115611c2f578082604051602001611c17929190614c40565b60405160208183030381529060405292505050611c3d565b611c3884612ff3565b925050505b919050565b600060011515600c83604051611c589190614c64565b908152602001604051809103902060009054906101000a900460ff161515149050919050565b6000600560008473ffffffffffffffffffffffffffffffffffffffff1673ffffffffffffffffffffffffffffffffffffffff16815260200190815260200160002060008373ffffffffffffffffffffffffffffffffffffffff1673ffffffffffffffffffffffffffffffffffffffff16815260200190815260200160002060009054906101000a900460ff16905092915050565b611d1a6129a0565b600073ffffffffffffffffffffffffffffffffffffffff168173ffffffffffffffffffffffffffffffffffffffff1603611d89576040517f08c379a0000000000000000000000000000000000000000000000000000000008152600401611d8090614ced565b60405180910390fd5b611d9281612a1e565b50565b60007f01ffc9a7000000000000000000000000000000000000000000000000000000007bffffffffffffffffffffffffffffffffffffffffffffffffffffffff1916827bffffffffffffffffffffffffffffffffffffffffffffffffffffffff1916149050919050565b611e088161305b565b611e47576040517f08c379a0000000000000000000000000000000000000000000000000000000008152600401611e3e906147a6565b60405180910390fd5b50565b600033905090565b816004600083815260200190815260200160002060006101000a81548173ffffffffffffffffffffffffffffffffffffffff021916908373ffffffffffffffffffffffffffffffffffffffff160217905550808273ffffffffffffffffffffffffffffffffffffffff16611ec5836110aa565b73ffffffffffffffffffffffffffffffffffffffff167f8c5be1e5ebec7d5bd14f71427d1e84f3dd0314c0f7b2291e5b200ac8c7c3b92560405160405180910390a45050565b600080611f17836110aa565b90508073ffffffffffffffffffffffffffffffffffffffff168473ffffffffffffffffffffffffffffffffffffffff161480611f595750611f588185611c7e565b5b80611f9757508373ffffffffffffffffffffffffffffffffffffffff16611f7f8461098d565b73ffffffffffffffffffffffffffffffffffffffff16145b91505092915050565b8273ffffffffffffffffffffffffffffffffffffffff16611fc0826110aa565b73ffffffffffffffffffffffffffffffffffffffff1614612016576040517f08c379a000000000000000000000000000000000000000000000000000000000815260040161200d90614d7f565b60405180910390fd5b600073ffffffffffffffffffffffffffffffffffffffff168273ffffffffffffffffffffffffffffffffffffffff1603612085576040517f08c379a000000000000000000000000000000000000000000000000000000000815260040161207c90614e11565b60405180910390fd5b612092838383600161309c565b8273ffffffffffffffffffffffffffffffffffffffff166120b2826110aa565b73ffffffffffffffffffffffffffffffffffffffff1614612108576040517f08c379a00000000000000000000000000000000000000000000000000000000081526004016120ff90614d7f565b60405180910390fd5b6004600082815260200190815260200160002060006101000a81549073ffffffffffffffffffffffffffffffffffffffff02191690556001600360008573ffffffffffffffffffffffffffffffffffffffff1673ffffffffffffffffffffffffffffffffffffffff168152602001908152602001600020600082825403925050819055506001600360008473ffffffffffffffffffffffffffffffffffffffff1673ffffffffffffffffffffffffffffffffffffffff16815260200190815260200160002060008282540192505081905550816002600083815260200190815260200160002060006101000a81548173ffffffffffffffffffffffffffffffffffffffff021916908373ffffffffffffffffffffffffffffffffffffffff160217905550808273ffffffffffffffffffffffffffffffffffffffff168473ffffffffffffffffffffffffffffffffffffffff167fddf252ad1be2c89b69c2b068fc378daa952ba7f163c4a11628f55a4df523b3ef60405160405180910390a461229483838360016130a2565b505050565b60006002600083815260200190815260200160002060009054906101000a900473ffffffffffffffffffffffffffffffffffffffff169050919050565b600073ffffffffffffffffffffffffffffffffffffffff168373ffffffffffffffffffffffffffffffffffffffff160361248a57600f600a6000838152602001908152602001600020908060018154018082558091505060019003906000526020600020906004020160009091909190915060008201548160000155600182015481600101556002820160009054906101000a900473ffffffffffffffffffffffffffffffffffffffff168160020160006101000a81548173ffffffffffffffffffffffffffffffffffffffff021916908373ffffffffffffffffffffffffffffffffffffffff1602179055506003820160009054906101000a900473ffffffffffffffffffffffffffffffffffffffff168160030160006101000a81548173ffffffffffffffffffffffffffffffffffffffff021916908373ffffffffffffffffffffffffffffffffffffffff1602179055506003820160149054906101000a900460ff168160030160146101000a81548160ff0219169083151502179055505050612463828261151e565b5061246e6009612afa565b600b60008381526020019081526020016000208190555061293f565b600073ffffffffffffffffffffffffffffffffffffffff168273ffffffffffffffffffffffffffffffffffffffff160361282b576124c883826130a8565b6000600b6000838152602001908152602001600020549050600060016124ee6009612afa565b6124f89190614e31565b90506000600f82815481106125105761250f61454a565b5b906000526020600020906004020160010154905061252e6009612afa565b831461276557600f6001846125439190614e31565b815481106125545761255361454a565b5b906000526020600020906004020160008082016000905560018201600090556002820160006101000a81549073ffffffffffffffffffffffffffffffffffffffff02191690556003820160006101000a81549073ffffffffffffffffffffffffffffffffffffffff02191690556003820160146101000a81549060ff02191690555050600f82815481106125eb576125ea61454a565b5b9060005260206000209060040201600f6001856126089190614e31565b815481106126195761261861454a565b5b906000526020600020906004020160008201548160000155600182015481600101556002820160009054906101000a900473ffffffffffffffffffffffffffffffffffffffff168160020160006101000a81548173ffffffffffffffffffffffffffffffffffffffff021916908373ffffffffffffffffffffffffffffffffffffffff1602179055506003820160009054906101000a900473ffffffffffffffffffffffffffffffffffffffff168160030160006101000a81548173ffffffffffffffffffffffffffffffffffffffff021916908373ffffffffffffffffffffffffffffffffffffffff1602179055506003820160149054906101000a900460ff168160030160146101000a81548160ff021916908315150217905550905050600b600084815260200190815260200160002054600b6000838152602001908152602001600020819055505b600f80548061277757612776614e65565b5b600190038181906000526020600020906004020160008082016000905560018201600090556002820160006101000a81549073ffffffffffffffffffffffffffffffffffffffff02191690556003820160006101000a81549073ffffffffffffffffffffffffffffffffffffffff02191690556003820160146101000a81549060ff02191690555050905561280c6009612944565b600b60008481526020019081526020016000206000905550505061293e565b8273ffffffffffffffffffffffffffffffffffffffff168273ffffffffffffffffffffffffffffffffffffffff161461293d576000600b6000838152602001908152602001600020549050808061288190614e94565b91505082600f82815481106128995761289861454a565b5b906000526020600020906004020160030160006101000a81548173ffffffffffffffffffffffffffffffffffffffff021916908373ffffffffffffffffffffffffffffffffffffffff1602179055506000600f82815481106128fe576128fd61454a565b5b906000526020600020906004020160030160146101000a81548160ff02191690831515021790555061293084836130a8565b61293a838361151e565b50505b5b5b505050565b60008160000154905060008111612990576040517f08c379a000000000000000000000000000000000000000000000000000000000815260040161298790614f09565b60405180910390fd5b6001810382600001819055505050565b6129a8611e4a565b73ffffffffffffffffffffffffffffffffffffffff166129c66115a3565b73ffffffffffffffffffffffffffffffffffffffff1614612a1c576040517f08c379a0000000000000000000000000000000000000000000000000000000008152600401612a1390614f75565b60405180910390fd5b565b6000600760009054906101000a900473ffffffffffffffffffffffffffffffffffffffff16905081600760006101000a81548173ffffffffffffffffffffffffffffffffffffffff021916908373ffffffffffffffffffffffffffffffffffffffff1602179055508173ffffffffffffffffffffffffffffffffffffffff168173ffffffffffffffffffffffffffffffffffffffff167f8be0079c531659141344cd1fd0a4f28419497f9722a3daafe3b4186f6b6457e060405160405180910390a35050565b6001816000016000828254019250508190555050565b600081600001549050919050565b612b2282826040518060200160405280600081525061326d565b5050565b612b2f8261305b565b612b6e576040517f08c379a0000000000000000000000000000000000000000000000000000000008152600401612b6590615007565b60405180910390fd5b80600660008481526020019081526020016000209081612b8e91906151d3565b505050565b6040518060a001604052808381526020018281526020018473ffffffffffffffffffffffffffffffffffffffff1681526020018473ffffffffffffffffffffffffffffffffffffffff16815260200160011515815250600a6000838152602001908152602001600020600082015181600001556020820151816001015560408201518160020160006101000a81548173ffffffffffffffffffffffffffffffffffffffff021916908373ffffffffffffffffffffffffffffffffffffffff16021790555060608201518160030160006101000a81548173ffffffffffffffffffffffffffffffffffffffff021916908373ffffffffffffffffffffffffffffffffffffffff16021790555060808201518160030160146101000a81548160ff021916908315150217905550905050505050565b6000612cd1826110aa565b9050612ce181600084600161309c565b612cea826110aa565b90506004600083815260200190815260200160002060006101000a81549073ffffffffffffffffffffffffffffffffffffffff02191690556001600360008373ffffffffffffffffffffffffffffffffffffffff1673ffffffffffffffffffffffffffffffffffffffff168152602001908152602001600020600082825403925050819055506002600083815260200190815260200160002060006101000a81549073ffffffffffffffffffffffffffffffffffffffff021916905581600073ffffffffffffffffffffffffffffffffffffffff168273ffffffffffffffffffffffffffffffffffffffff167fddf252ad1be2c89b69c2b068fc378daa952ba7f163c4a11628f55a4df523b3ef60405160405180910390a4612e108160008460016130a2565b5050565b8173ffffffffffffffffffffffffffffffffffffffff168373ffffffffffffffffffffffffffffffffffffffff1603612e82576040517f08c379a0000000000000000000000000000000000000000000000000000000008152600401612e79906152f1565b60405180910390fd5b80600560008573ffffffffffffffffffffffffffffffffffffffff1673ffffffffffffffffffffffffffffffffffffffff16815260200190815260200160002060008473ffffffffffffffffffffffffffffffffffffffff1673ffffffffffffffffffffffffffffffffffffffff16815260200190815260200160002060006101000a81548160ff0219169083151502179055508173ffffffffffffffffffffffffffffffffffffffff168373ffffffffffffffffffffffffffffffffffffffff167f17307eab39ab6107e8899845ad3d59bd9653f200f220920489ca2b5937696c3183604051612f7391906139c1565b60405180910390a3505050565b612f8b848484611fa0565b612f97848484846132c8565b612fd6576040517f08c379a0000000000000000000000000000000000000000000000000000000008152600401612fcd90615383565b60405180910390fd5b50505050565b606060405180602001604052806000815250905090565b6060612ffe82611dff565b6000613008612fdc565b905060008151116130285760405180602001604052806000815250613053565b806130328461344f565b604051602001613043929190614c40565b6040516020818303038152906040525b915050919050565b60008073ffffffffffffffffffffffffffffffffffffffff1661307d83612299565b73ffffffffffffffffffffffffffffffffffffffff1614159050919050565b50505050565b50505050565b60006130b383611152565b905080806130c0906145a8565b9150506000600e60008481526020019081526020016000205490508181146131fc576000600d60008673ffffffffffffffffffffffffffffffffffffffff1673ffffffffffffffffffffffffffffffffffffffff16815260200190815260200160002060008581526020019081526020016000205490506000600d60008773ffffffffffffffffffffffffffffffffffffffff1673ffffffffffffffffffffffffffffffffffffffff168152602001908152602001600020600085815260200190815260200160002054905081600e60008381526020019081526020016000208190555080600d60008873ffffffffffffffffffffffffffffffffffffffff1673ffffffffffffffffffffffffffffffffffffffff16815260200190815260200160002060008481526020019081526020016000208190555050505b600d60008573ffffffffffffffffffffffffffffffffffffffff1673ffffffffffffffffffffffffffffffffffffffff168152602001908152602001600020600083815260200190815260200160002060009055600e60008481526020019081526020016000206000905550505050565b613277838361351d565b61328460008484846132c8565b6132c3576040517f08c379a00000000000000000000000000000000000000000000000000000000081526004016132ba90615383565b60405180910390fd5b505050565b60006132e98473ffffffffffffffffffffffffffffffffffffffff1661373a565b15613442578373ffffffffffffffffffffffffffffffffffffffff1663150b7a02613312611e4a565b8786866040518563ffffffff1660e01b815260040161333494939291906153f8565b6020604051808303816000875af192505050801561337057506040513d601f19601f8201168201806040525081019061336d9190615459565b60015b6133f2573d80600081146133a0576040519150601f19603f3d011682016040523d82523d6000602084013e6133a5565b606091505b5060008151036133ea576040517f08c379a00000000000000000000000000000000000000000000000000000000081526004016133e190615383565b60405180910390fd5b805181602001fd5b63150b7a0260e01b7bffffffffffffffffffffffffffffffffffffffffffffffffffffffff1916817bffffffffffffffffffffffffffffffffffffffffffffffffffffffff191614915050613447565b600190505b949350505050565b60606000600161345e8461375d565b01905060008167ffffffffffffffff81111561347d5761347c613ea4565b5b6040519080825280601f01601f1916602001820160405280156134af5781602001600182028036833780820191505090505b509050600082602001820190505b600115613512578080600190039150507f3031323334353637383961626364656600000000000000000000000000000000600a86061a8153600a858161350657613505615486565b5b049450600085036134bd575b819350505050919050565b600073ffffffffffffffffffffffffffffffffffffffff168273ffffffffffffffffffffffffffffffffffffffff160361358c576040517f08c379a000000000000000000000000000000000000000000000000000000000815260040161358390615501565b60405180910390fd5b6135958161305b565b156135d5576040517f08c379a00000000000000000000000000000000000000000000000000000000081526004016135cc9061556d565b60405180910390fd5b6135e360008383600161309c565b6135ec8161305b565b1561362c576040517f08c379a00000000000000000000000000000000000000000000000000000000081526004016136239061556d565b60405180910390fd5b6001600360008473ffffffffffffffffffffffffffffffffffffffff1673ffffffffffffffffffffffffffffffffffffffff16815260200190815260200160002060008282540192505081905550816002600083815260200190815260200160002060006101000a81548173ffffffffffffffffffffffffffffffffffffffff021916908373ffffffffffffffffffffffffffffffffffffffff160217905550808273ffffffffffffffffffffffffffffffffffffffff16600073ffffffffffffffffffffffffffffffffffffffff167fddf252ad1be2c89b69c2b068fc378daa952ba7f163c4a11628f55a4df523b3ef60405160405180910390a46137366000838360016130a2565b5050565b6000808273ffffffffffffffffffffffffffffffffffffffff163b119050919050565b600080600090507a184f03e93ff9f4daa797ed6e38ed64bf6a1f01000000000000000083106137bb577a184f03e93ff9f4daa797ed6e38ed64bf6a1f01000000000000000083816137b1576137b0615486565b5b0492506040810190505b6d04ee2d6d415b85acef810000000083106137f8576d04ee2d6d415b85acef810000000083816137ee576137ed615486565b5b0492506020810190505b662386f26fc10000831061382757662386f26fc10000838161381d5761381c615486565b5b0492506010810190505b6305f5e1008310613850576305f5e100838161384657613845615486565b5b0492506008810190505b612710831061387557612710838161386b5761386a615486565b5b0492506004810190505b60648310613898576064838161388e5761388d615486565b5b0492506002810190505b600a83106138a7576001810190505b80915050919050565b6040518060a001604052806000815260200160008152602001600073ffffffffffffffffffffffffffffffffffffffff168152602001600073ffffffffffffffffffffffffffffffffffffffff1681526020016000151581525090565b6000604051905090565b600080fd5b600080fd5b60007fffffffff0000000000000000000000000000000000000000000000000000000082169050919050565b61395681613921565b811461396157600080fd5b50565b6000813590506139738161394d565b92915050565b60006020828403121561398f5761398e613917565b5b600061399d84828501613964565b91505092915050565b60008115159050919050565b6139bb816139a6565b82525050565b60006020820190506139d660008301846139b2565b92915050565b600081519050919050565b600082825260208201905092915050565b60005b83811015613a165780820151818401526020810190506139fb565b60008484015250505050565b6000601f19601f8301169050919050565b6000613a3e826139dc565b613a4881856139e7565b9350613a588185602086016139f8565b613a6181613a22565b840191505092915050565b60006020820190508181036000830152613a868184613a33565b905092915050565b6000819050919050565b613aa181613a8e565b8114613aac57600080fd5b50565b600081359050613abe81613a98565b92915050565b600060208284031215613ada57613ad9613917565b5b6000613ae884828501613aaf565b91505092915050565b600073ffffffffffffffffffffffffffffffffffffffff82169050919050565b6000613b1c82613af1565b9050919050565b613b2c81613b11565b82525050565b6000602082019050613b476000830184613b23565b92915050565b613b5681613b11565b8114613b6157600080fd5b50565b600081359050613b7381613b4d565b92915050565b60008060408385031215613b9057613b8f613917565b5b6000613b9e85828601613b64565b9250506020613baf85828601613aaf565b9150509250929050565b613bc281613a8e565b82525050565b6000602082019050613bdd6000830184613bb9565b92915050565b600081519050919050565b600082825260208201905092915050565b6000819050602082019050919050565b613c1881613a8e565b82525050565b6000613c2a8383613c0f565b60208301905092915050565b6000602082019050919050565b6000613c4e82613be3565b613c588185613bee565b9350613c6383613bff565b8060005b83811015613c94578151613c7b8882613c1e565b9750613c8683613c36565b925050600181019050613c67565b5085935050505092915050565b60006020820190508181036000830152613cbb8184613c43565b905092915050565b600080600060608486031215613cdc57613cdb613917565b5b6000613cea86828701613b64565b9350506020613cfb86828701613b64565b9250506040613d0c86828701613aaf565b9150509250925092565b600081519050919050565b600082825260208201905092915050565b6000819050602082019050919050565b613d4b81613b11565b82525050565b613d5a816139a6565b82525050565b60a082016000820151613d766000850182613c0f565b506020820151613d896020850182613c0f565b506040820151613d9c6040850182613d42565b506060820151613daf6060850182613d42565b506080820151613dc26080850182613d51565b50505050565b6000613dd48383613d60565b60a08301905092915050565b6000602082019050919050565b6000613df882613d16565b613e028185613d21565b9350613e0d83613d32565b8060005b83811015613e3e578151613e258882613dc8565b9750613e3083613de0565b925050600181019050613e11565b5085935050505092915050565b60006020820190508181036000830152613e658184613ded565b905092915050565b600060208284031215613e8357613e82613917565b5b6000613e9184828501613b64565b91505092915050565b600080fd5b600080fd5b7f4e487b7100000000000000000000000000000000000000000000000000000000600052604160045260246000fd5b613edc82613a22565b810181811067ffffffffffffffff82111715613efb57613efa613ea4565b5b80604052505050565b6000613f0e61390d565b9050613f1a8282613ed3565b919050565b600067ffffffffffffffff821115613f3a57613f39613ea4565b5b613f4382613a22565b9050602081019050919050565b82818337600083830152505050565b6000613f72613f6d84613f1f565b613f04565b905082815260208101848484011115613f8e57613f8d613e9f565b5b613f99848285613f50565b509392505050565b600082601f830112613fb657613fb5613e9a565b5b8135613fc6848260208601613f5f565b91505092915050565b60008060408385031215613fe657613fe5613917565b5b6000613ff485828601613aaf565b925050602083013567ffffffffffffffff8111156140155761401461391c565b5b61402185828601613fa1565b9150509250929050565b6000806040838503121561404257614041613917565b5b600061405085828601613aaf565b925050602061406185828601613aaf565b9150509250929050565b60a0820160008201516140816000850182613c0f565b5060208201516140946020850182613c0f565b5060408201516140a76040850182613d42565b5060608201516140ba6060850182613d42565b5060808201516140cd6080850182613d51565b50505050565b600060a0820190506140e8600083018461406b565b92915050565b6140f7816139a6565b811461410257600080fd5b50565b600081359050614114816140ee565b92915050565b6000806040838503121561413157614130613917565b5b600061413f85828601613b64565b925050602061415085828601614105565b9150509250929050565b600067ffffffffffffffff82111561417557614174613ea4565b5b61417e82613a22565b9050602081019050919050565b600061419e6141998461415a565b613f04565b9050828152602081018484840111156141ba576141b9613e9f565b5b6141c5848285613f50565b509392505050565b600082601f8301126141e2576141e1613e9a565b5b81356141f284826020860161418b565b91505092915050565b6000806000806080858703121561421557614214613917565b5b600061422387828801613b64565b945050602061423487828801613b64565b935050604061424587828801613aaf565b925050606085013567ffffffffffffffff8111156142665761426561391c565b5b614272878288016141cd565b91505092959194509250565b600060a0820190506142936000830188613bb9565b6142a06020830187613bb9565b6142ad6040830186613b23565b6142ba6060830185613b23565b6142c760808301846139b2565b9695505050505050565b6000602082840312156142e7576142e6613917565b5b600082013567ffffffffffffffff8111156143055761430461391c565b5b61431184828501613fa1565b91505092915050565b6000806040838503121561433157614330613917565b5b600061433f85828601613b64565b925050602061435085828601613b64565b9150509250929050565b7f4e487b7100000000000000000000000000000000000000000000000000000000600052602260045260246000fd5b600060028204905060018216806143a157607f821691505b6020821081036143b4576143b361435a565b5b50919050565b7f4552433732313a20617070726f76616c20746f2063757272656e74206f776e6560008201527f7200000000000000000000000000000000000000000000000000000000000000602082015250565b60006144166021836139e7565b9150614421826143ba565b604082019050919050565b6000602082019050818103600083015261444581614409565b9050919050565b7f4552433732313a20617070726f76652063616c6c6572206973206e6f7420746f60008201527f6b656e206f776e6572206f7220617070726f76656420666f7220616c6c000000602082015250565b60006144a8603d836139e7565b91506144b38261444c565b604082019050919050565b600060208201905081810360008301526144d78161449b565b9050919050565b7f796f7520646f6e74206f776e20616e797468696e670000000000000000000000600082015250565b60006145146015836139e7565b915061451f826144de565b602082019050919050565b6000602082019050818103600083015261454381614507565b9050919050565b7f4e487b7100000000000000000000000000000000000000000000000000000000600052603260045260246000fd5b7f4e487b7100000000000000000000000000000000000000000000000000000000600052601160045260246000fd5b60006145b382613a8e565b91507fffffffffffffffffffffffffffffffffffffffffffffffffffffffffffffffff82036145e5576145e4614579565b5b600182019050919050565b7f4552433732313a2063616c6c6572206973206e6f7420746f6b656e206f776e6560008201527f72206f7220617070726f76656400000000000000000000000000000000000000602082015250565b600061464c602d836139e7565b9150614657826145f0565b604082019050919050565b6000602082019050818103600083015261467b8161463f565b9050919050565b7f796f752061726520746865206f776e6572000000000000000000000000000000600082015250565b60006146b86011836139e7565b91506146c382614682565b602082019050919050565b600060208201905081810360008301526146e7816146ab565b9050919050565b7f696e636f72726563742045544800000000000000000000000000000000000000600082015250565b6000614724600d836139e7565b915061472f826146ee565b602082019050919050565b6000602082019050818103600083015261475381614717565b9050919050565b7f4552433732313a20696e76616c696420746f6b656e2049440000000000000000600082015250565b60006147906018836139e7565b915061479b8261475a565b602082019050919050565b600060208201905081810360008301526147bf81614783565b9050919050565b7f4552433732313a2061646472657373207a65726f206973206e6f74206120766160008201527f6c6964206f776e65720000000000000000000000000000000000000000000000602082015250565b60006148226029836139e7565b915061482d826147c6565b604082019050919050565b6000602082019050818103600083015261485181614815565b9050919050565b7f6e6f7420636f7272656374206574680000000000000000000000000000000000600082015250565b600061488e600f836139e7565b915061489982614858565b602082019050919050565b600060208201905081810360008301526148bd81614881565b9050919050565b7f746f6b656e20616c726561647920657869737400000000000000000000000000600082015250565b60006148fa6013836139e7565b9150614905826148c4565b602082019050919050565b60006020820190508181036000830152614929816148ed565b9050919050565b7f6f6e6c792069732061626c6520746f206275726e20746f6b656e000000000000600082015250565b6000614966601a836139e7565b915061497182614930565b602082019050919050565b6000602082019050818103600083015261499581614959565b9050919050565b7f6e6577207072696365206d6f737420626520626967676572207468616e20312060008201527f5765690000000000000000000000000000000000000000000000000000000000602082015250565b60006149f86023836139e7565b9150614a038261499c565b604082019050919050565b60006020820190508181036000830152614a27816149eb565b9050919050565b7f6e6f742073756666696363656e742066756e6400000000000000000000000000600082015250565b6000614a646013836139e7565b9150614a6f82614a2e565b602082019050919050565b60006020820190508181036000830152614a9381614a57565b9050919050565b7f6f6e6c7920746865206f776e657220697320616c6c6f77656420746f206c697360008201527f7420746865206e65772070726963650000000000000000000000000000000000602082015250565b6000614af6602f836139e7565b9150614b0182614a9a565b604082019050919050565b60006020820190508181036000830152614b2581614ae9565b9050919050565b7f77726f6e672076616c756520656e746572656400000000000000000000000000600082015250565b6000614b626013836139e7565b9150614b6d82614b2c565b602082019050919050565b60006020820190508181036000830152614b9181614b55565b9050919050565b7f4e4654206e6f7420617661696c61626c65000000000000000000000000000000600082015250565b6000614bce6011836139e7565b9150614bd982614b98565b602082019050919050565b60006020820190508181036000830152614bfd81614bc1565b9050919050565b600081905092915050565b6000614c1a826139dc565b614c248185614c04565b9350614c348185602086016139f8565b80840191505092915050565b6000614c4c8285614c0f565b9150614c588284614c0f565b91508190509392505050565b6000614c708284614c0f565b915081905092915050565b7f4f776e61626c653a206e6577206f776e657220697320746865207a65726f206160008201527f6464726573730000000000000000000000000000000000000000000000000000602082015250565b6000614cd76026836139e7565b9150614ce282614c7b565b604082019050919050565b60006020820190508181036000830152614d0681614cca565b9050919050565b7f4552433732313a207472616e736665722066726f6d20696e636f72726563742060008201527f6f776e6572000000000000000000000000000000000000000000000000000000602082015250565b6000614d696025836139e7565b9150614d7482614d0d565b604082019050919050565b60006020820190508181036000830152614d9881614d5c565b9050919050565b7f4552433732313a207472616e7366657220746f20746865207a65726f2061646460008201527f7265737300000000000000000000000000000000000000000000000000000000602082015250565b6000614dfb6024836139e7565b9150614e0682614d9f565b604082019050919050565b60006020820190508181036000830152614e2a81614dee565b9050919050565b6000614e3c82613a8e565b9150614e4783613a8e565b9250828203905081811115614e5f57614e5e614579565b5b92915050565b7f4e487b7100000000000000000000000000000000000000000000000000000000600052603160045260246000fd5b6000614e9f82613a8e565b915060008203614eb257614eb1614579565b5b600182039050919050565b7f436f756e7465723a2064656372656d656e74206f766572666c6f770000000000600082015250565b6000614ef3601b836139e7565b9150614efe82614ebd565b602082019050919050565b60006020820190508181036000830152614f2281614ee6565b9050919050565b7f4f776e61626c653a2063616c6c6572206973206e6f7420746865206f776e6572600082015250565b6000614f5f6020836139e7565b9150614f6a82614f29565b602082019050919050565b60006020820190508181036000830152614f8e81614f52565b9050919050565b7f45524337323155524953746f726167653a2055524920736574206f66206e6f6e60008201527f6578697374656e7420746f6b656e000000000000000000000000000000000000602082015250565b6000614ff1602e836139e7565b9150614ffc82614f95565b604082019050919050565b6000602082019050818103600083015261502081614fe4565b9050919050565b60008190508160005260206000209050919050565b60006020601f8301049050919050565b600082821b905092915050565b6000600883026150897fffffffffffffffffffffffffffffffffffffffffffffffffffffffffffffffff8261504c565b615093868361504c565b95508019841693508086168417925050509392505050565b6000819050919050565b60006150d06150cb6150c684613a8e565b6150ab565b613a8e565b9050919050565b6000819050919050565b6150ea836150b5565b6150fe6150f6826150d7565b848454615059565b825550505050565b600090565b615113615106565b61511e8184846150e1565b505050565b5b818110156151425761513760008261510b565b600181019050615124565b5050565b601f8211156151875761515881615027565b6151618461503c565b81016020851015615170578190505b61518461517c8561503c565b830182615123565b50505b505050565b600082821c905092915050565b60006151aa6000198460080261518c565b1980831691505092915050565b60006151c38383615199565b9150826002028217905092915050565b6151dc826139dc565b67ffffffffffffffff8111156151f5576151f4613ea4565b5b6151ff8254614389565b61520a828285615146565b600060209050601f83116001811461523d576000841561522b578287015190505b61523585826151b7565b86555061529d565b601f19841661524b86615027565b60005b828110156152735784890151825560018201915060208501945060208101905061524e565b86831015615290578489015161528c601f891682615199565b8355505b6001600288020188555050505b505050505050565b7f4552433732313a20617070726f766520746f2063616c6c657200000000000000600082015250565b60006152db6019836139e7565b91506152e6826152a5565b602082019050919050565b6000602082019050818103600083015261530a816152ce565b9050919050565b7f4552433732313a207472616e7366657220746f206e6f6e20455243373231526560008201527f63656976657220696d706c656d656e7465720000000000000000000000000000602082015250565b600061536d6032836139e7565b915061537882615311565b604082019050919050565b6000602082019050818103600083015261539c81615360565b9050919050565b600081519050919050565b600082825260208201905092915050565b60006153ca826153a3565b6153d481856153ae565b93506153e48185602086016139f8565b6153ed81613a22565b840191505092915050565b600060808201905061540d6000830187613b23565b61541a6020830186613b23565b6154276040830185613bb9565b818103606083015261543981846153bf565b905095945050505050565b6000815190506154538161394d565b92915050565b60006020828403121561546f5761546e613917565b5b600061547d84828501615444565b91505092915050565b7f4e487b7100000000000000000000000000000000000000000000000000000000600052601260045260246000fd5b7f4552433732313a206d696e7420746f20746865207a65726f2061646472657373600082015250565b60006154eb6020836139e7565b91506154f6826154b5565b602082019050919050565b6000602082019050818103600083015261551a816154de565b9050919050565b7f4552433732313a20746f6b656e20616c7265616479206d696e74656400000000600082015250565b6000615557601c836139e7565b915061556282615521565b602082019050919050565b600060208201905081810360008301526155868161554a565b905091905056fea26469706673582212208f4780251818f0f31940f6c536f2b86ab03549e055c471a0e73a39f20df0a08d64736f6c63430008110033",
  "linkReferences": {},
  "deployedLinkReferences": {}
}