{
  "_format": "hh-sol-artifact-1",
  "contractName": "LoanCOntract",
  "sourceName": "contracts/TimebaseContract.sol",
  "abi": [
    {
      "inputs": [
        {
          "internalType": "address",
          "name": "_nftLender",
          "type": "address"
        },
        {
          "internalType": "address",
          "name": "_EthLender",
          "type": "address"
        },
        {
          "internalType": "uint256",
          "name": "_amountBorrowed",
          "type": "uint256"
        }
      ],
      "stateMutability": "nonpayable",
      "type": "constructor"
    },
    {
      "inputs": [],
      "name": "RefundValue",
      "outputs": [
        {
          "internalType": "uint256",
          "name": "",
          "type": "uint256"
        }
      ],
      "stateMutability": "view",
      "type": "function"
    },
    {
      "inputs": [],
      "name": "contractDetails",
      "outputs": [
        {
          "internalType": "address",
          "name": "",
          "type": "address"
        },
        {
          "internalType": "address",
          "name": "",
          "type": "address"
        },
        {
          "internalType": "uint256",
          "name": "",
          "type": "uint256"
        }
      ],
      "stateMutability": "view",
      "type": "function"
    },
    {
      "inputs": [],
      "name": "deadlineReached",
      "outputs": [],
      "stateMutability": "nonpayable",
      "type": "function"
    },
    {
      "inputs": [],
      "name": "destroyContract",
      "outputs": [],
      "stateMutability": "payable",
      "type": "function"
    },
    {
      "inputs": [],
      "name": "etherLEnder",
      "outputs": [
        {
          "internalType": "address",
          "name": "",
          "type": "address"
        }
      ],
      "stateMutability": "view",
      "type": "function"
    },
    {
      "inputs": [
        {
          "internalType": "address",
          "name": "_nftContract",
          "type": "address"
        },
        {
          "internalType": "uint256",
          "name": "tokenId",
          "type": "uint256"
        }
      ],
      "name": "fundContract",
      "outputs": [],
      "stateMutability": "payable",
      "type": "function"
    },
    {
      "inputs": [],
      "name": "fundNftOwner",
      "outputs": [],
      "stateMutability": "nonpayable",
      "type": "function"
    },
    {
      "inputs": [],
      "name": "getBalanceContract",
      "outputs": [
        {
          "internalType": "uint256",
          "name": "",
          "type": "uint256"
        }
      ],
      "stateMutability": "payable",
      "type": "function"
    },
    {
      "inputs": [],
      "name": "isDeadlineReached",
      "outputs": [
        {
          "internalType": "bool",
          "name": "",
          "type": "bool"
        }
      ],
      "stateMutability": "view",
      "type": "function"
    },
    {
      "inputs": [],
      "name": "nftContract",
      "outputs": [
        {
          "internalType": "address",
          "name": "",
          "type": "address"
        }
      ],
      "stateMutability": "view",
      "type": "function"
    },
    {
      "inputs": [],
      "name": "nftLender",
      "outputs": [
        {
          "internalType": "address",
          "name": "",
          "type": "address"
        }
      ],
      "stateMutability": "view",
      "type": "function"
    },
    {
      "inputs": [],
      "name": "ownerContract",
      "outputs": [
        {
          "internalType": "address",
          "name": "",
          "type": "address"
        }
      ],
      "stateMutability": "view",
      "type": "function"
    },
    {
      "inputs": [
        {
          "internalType": "uint256",
          "name": "tokenId",
          "type": "uint256"
        }
      ],
      "name": "ownerOfNft",
      "outputs": [
        {
          "internalType": "address",
          "name": "",
          "type": "address"
        }
      ],
      "stateMutability": "view",
      "type": "function"
    },
    {
      "inputs": [],
      "name": "refundLoan",
      "outputs": [],
      "stateMutability": "payable",
      "type": "function"
    },
    {
      "inputs": [],
      "name": "revokeContract",
      "outputs": [],
      "stateMutability": "payable",
      "type": "function"
    },
    {
      "inputs": [],
      "name": "takingCollaretal",
      "outputs": [],
      "stateMutability": "nonpayable",
      "type": "function"
    },
    {
      "inputs": [],
      "name": "timeRemaining",
      "outputs": [
        {
          "internalType": "uint256",
          "name": "",
          "type": "uint256"
        },
        {
          "internalType": "uint256",
          "name": "",
          "type": "uint256"
        }
      ],
      "stateMutability": "view",
      "type": "function"
    },
    {
      "inputs": [],
      "name": "valueOfContract",
      "outputs": [
        {
          "internalType": "uint256",
          "name": "",
          "type": "uint256"
        }
      ],
      "stateMutability": "view",
      "type": "function"
    }
  ],
  "bytecode": "0x60c06040523480156200001157600080fd5b5060405162001ada38038062001ada8339818101604052810190620000379190620001ec565b826000806101000a81548173ffffffffffffffffffffffffffffffffffffffff021916908373ffffffffffffffffffffffffffffffffffffffff16021790555081600160006101000a81548173ffffffffffffffffffffffffffffffffffffffff021916908373ffffffffffffffffffffffffffffffffffffffff160217905550806006819055503373ffffffffffffffffffffffffffffffffffffffff1660808173ffffffffffffffffffffffffffffffffffffffff16815250503073ffffffffffffffffffffffffffffffffffffffff1660a08173ffffffffffffffffffffffffffffffffffffffff1681525050624f1a004262000138919062000277565b600781905550505050620002b2565b600080fd5b600073ffffffffffffffffffffffffffffffffffffffff82169050919050565b600062000179826200014c565b9050919050565b6200018b816200016c565b81146200019757600080fd5b50565b600081519050620001ab8162000180565b92915050565b6000819050919050565b620001c681620001b1565b8114620001d257600080fd5b50565b600081519050620001e681620001bb565b92915050565b60008060006060848603121562000208576200020762000147565b5b600062000218868287016200019a565b93505060206200022b868287016200019a565b92505060406200023e86828701620001d5565b9150509250925092565b7f4e487b7100000000000000000000000000000000000000000000000000000000600052601160045260246000fd5b60006200028482620001b1565b91506200029183620001b1565b9250828201905080821115620002ac57620002ab62000248565b5b92915050565b60805160a0516117e2620002f86000396000505060008181610370015281816103fe015281816105e3015281816106260152818161072d0152610c3001526117e26000f3fe6080604052600436106101095760003560e01c8063a29b8b9111610095578063bd35638711610064578063bd356387146102cb578063d56d229d146102e2578063dd967b0b1461030d578063e3cfef6014610317578063e97ae6741461034357610109565b8063a29b8b9114610221578063a4a0d80114610238578063b84c52ef14610263578063b922f94c1461028e57610109565b80635f1c1a97116100dc5780635f1c1a971461018c57806366625bbd146101b757806366bd78fd146101c15780637f74ac15146101df578063868d68f31461020a57610109565b8063092a5cce1461010e57806339571d6e14610118578063405158451461014557806342e02fb414610170575b600080fd5b61011661036e565b005b34801561012457600080fd5b5061012d610435565b60405161013c93929190610fd5565b60405180910390f35b34801561015157600080fd5b5061015a610491565b604051610167919061100c565b60405180910390f35b61018a60048036038101906101859190611084565b6104b7565b005b34801561019857600080fd5b506101a16105c1565b6040516101ae91906110df565b60405180910390f35b6101bf6105e1565b005b6101c961061a565b6040516101d691906110fa565b60405180910390f35b3480156101eb57600080fd5b506101f4610622565b604051610201919061100c565b60405180910390f35b34801561021657600080fd5b5061021f61064a565b005b34801561022d57600080fd5b50610236610729565b005b34801561024457600080fd5b5061024d6108ab565b60405161025a91906110fa565b60405180910390f35b34801561026f57600080fd5b506102786108b5565b60405161028591906110fa565b60405180910390f35b34801561029a57600080fd5b506102b560048036038101906102b09190611115565b6108e4565b6040516102c2919061100c565b60405180910390f35b3480156102d757600080fd5b506102e0610989565b005b3480156102ee57600080fd5b506102f7610b02565b604051610304919061100c565b60405180910390f35b610315610b28565b005b34801561032357600080fd5b5061032c610dbb565b60405161033a929190611142565b60405180910390f35b34801561034f57600080fd5b50610358610dca565b604051610365919061100c565b60405180910390f35b7f000000000000000000000000000000000000000000000000000000000000000073ffffffffffffffffffffffffffffffffffffffff163373ffffffffffffffffffffffffffffffffffffffff16146103fc576040517f08c379a00000000000000000000000000000000000000000000000000000000081526004016103f3906111c8565b60405180910390fd5b7f000000000000000000000000000000000000000000000000000000000000000073ffffffffffffffffffffffffffffffffffffffff16ff5b6000806000600260009054906101000a900473ffffffffffffffffffffffffffffffffffffffff16600160009054906101000a900473ffffffffffffffffffffffffffffffffffffffff16600360010154925092509250909192565b600160009054906101000a900473ffffffffffffffffffffffffffffffffffffffff1681565b60065434146104fb576040517f08c379a00000000000000000000000000000000000000000000000000000000081526004016104f290611234565b60405180910390fd5b60405180604001604052808373ffffffffffffffffffffffffffffffffffffffff16815260200182815250600360008201518160000160006101000a81548173ffffffffffffffffffffffffffffffffffffffff021916908373ffffffffffffffffffffffffffffffffffffffff1602179055506020820151816001015590505081600260006101000a81548173ffffffffffffffffffffffffffffffffffffffff021916908373ffffffffffffffffffffffffffffffffffffffff1602179055505050565b6000806007544210156105d55760006105d8565b60015b90508091505090565b7f000000000000000000000000000000000000000000000000000000000000000073ffffffffffffffffffffffffffffffffffffffff16ff5b600047905090565b60007f0000000000000000000000000000000000000000000000000000000000000000905090565b600160009054906101000a900473ffffffffffffffffffffffffffffffffffffffff1673ffffffffffffffffffffffffffffffffffffffff163373ffffffffffffffffffffffffffffffffffffffff16146106da576040517f08c379a00000000000000000000000000000000000000000000000000000000081526004016106d1906112a0565b60405180910390fd5b60075442101561071f576040517f08c379a00000000000000000000000000000000000000000000000000000000081526004016107169061130c565b60405180910390fd5b610727610729565b565b60007f000000000000000000000000000000000000000000000000000000000000000073ffffffffffffffffffffffffffffffffffffffff1660008060009054906101000a900473ffffffffffffffffffffffffffffffffffffffff163060405160240161079892919061132c565b6040516020818303038152906040527fe3919646000000000000000000000000000000000000000000000000000000007bffffffffffffffffffffffffffffffffffffffffffffffffffffffff19166020820180517bffffffffffffffffffffffffffffffffffffffffffffffffffffffff838183161783525050505060405161082291906113c6565b60006040518083038185875af1925050503d806000811461085f576040519150601f19603f3d011682016040523d82523d6000602084013e610864565b606091505b50509050806108a8576040517f08c379a000000000000000000000000000000000000000000000000000000000815260040161089f90611429565b60405180910390fd5b50565b6000600654905090565b60006064600a6006546108c89190611478565b6108d291906114e9565b6006546108df919061151a565b905090565b6000600260009054906101000a900473ffffffffffffffffffffffffffffffffffffffff1673ffffffffffffffffffffffffffffffffffffffff16636352211e836040518263ffffffff1660e01b815260040161094191906110fa565b602060405180830381865afa15801561095e573d6000803e3d6000fd5b505050506040513d601f19601f820116820180604052508101906109829190611563565b9050919050565b3073ffffffffffffffffffffffffffffffffffffffff16600260009054906101000a900473ffffffffffffffffffffffffffffffffffffffff1673ffffffffffffffffffffffffffffffffffffffff16636352211e6003600101546040518263ffffffff1660e01b8152600401610a0091906110fa565b602060405180830381865afa158015610a1d573d6000803e3d6000fd5b505050506040513d601f19601f82011682018060405250810190610a419190611563565b73ffffffffffffffffffffffffffffffffffffffff1614610a97576040517f08c379a0000000000000000000000000000000000000000000000000000000008152600401610a8e906115dc565b60405180910390fd5b60008054906101000a900473ffffffffffffffffffffffffffffffffffffffff1673ffffffffffffffffffffffffffffffffffffffff166108fc6006549081150290604051600060405180830381858888f19350505050158015610aff573d6000803e3d6000fd5b50565b600260009054906101000a900473ffffffffffffffffffffffffffffffffffffffff1681565b60008054906101000a900473ffffffffffffffffffffffffffffffffffffffff1673ffffffffffffffffffffffffffffffffffffffff163373ffffffffffffffffffffffffffffffffffffffff1614610bb6576040517f08c379a0000000000000000000000000000000000000000000000000000000008152600401610bad90611648565b60405180910390fd5b60006064600a600654610bc99190611478565b610bd391906114e9565b600654610be0919061151a565b9050803414610c24576040517f08c379a0000000000000000000000000000000000000000000000000000000008152600401610c1b906116b4565b60405180910390fd5b610c2c610dee565b60007f0000000000000000000000000000000000000000000000000000000000000000905060008173ffffffffffffffffffffffffffffffffffffffff163460008054906101000a900473ffffffffffffffffffffffffffffffffffffffff1630604051602401610c9e92919061132c565b6040516020818303038152906040527f14e3c7ac000000000000000000000000000000000000000000000000000000007bffffffffffffffffffffffffffffffffffffffffffffffffffffffff19166020820180517bffffffffffffffffffffffffffffffffffffffffffffffffffffffff8381831617835250505050604051610d2891906113c6565b60006040518083038185875af1925050503d8060008114610d65576040519150601f19603f3d011682016040523d82523d6000602084013e610d6a565b606091505b5050905080610dae576040517f08c379a0000000000000000000000000000000000000000000000000000000008152600401610da590611720565b60405180910390fd5b610db66105e1565b505050565b60008042600754915091509091565b60008054906101000a900473ffffffffffffffffffffffffffffffffffffffff1681565b600080600260009054906101000a900473ffffffffffffffffffffffffffffffffffffffff1673ffffffffffffffffffffffffffffffffffffffff1660003060008054906101000a900473ffffffffffffffffffffffffffffffffffffffff16600360010154604051602401610e6693929190610fd5565b6040516020818303038152906040527f23b872dd000000000000000000000000000000000000000000000000000000007bffffffffffffffffffffffffffffffffffffffffffffffffffffffff19166020820180517bffffffffffffffffffffffffffffffffffffffffffffffffffffffff8381831617835250505050604051610ef091906113c6565b60006040518083038185875af1925050503d8060008114610f2d576040519150601f19603f3d011682016040523d82523d6000602084013e610f32565b606091505b509150915081610f77576040517f08c379a0000000000000000000000000000000000000000000000000000000008152600401610f6e9061178c565b60405180910390fd5b5050565b600073ffffffffffffffffffffffffffffffffffffffff82169050919050565b6000610fa682610f7b565b9050919050565b610fb681610f9b565b82525050565b6000819050919050565b610fcf81610fbc565b82525050565b6000606082019050610fea6000830186610fad565b610ff76020830185610fad565b6110046040830184610fc6565b949350505050565b60006020820190506110216000830184610fad565b92915050565b600080fd5b61103581610f9b565b811461104057600080fd5b50565b6000813590506110528161102c565b92915050565b61106181610fbc565b811461106c57600080fd5b50565b60008135905061107e81611058565b92915050565b6000806040838503121561109b5761109a611027565b5b60006110a985828601611043565b92505060206110ba8582860161106f565b9150509250929050565b60008115159050919050565b6110d9816110c4565b82525050565b60006020820190506110f460008301846110d0565b92915050565b600060208201905061110f6000830184610fc6565b92915050565b60006020828403121561112b5761112a611027565b5b60006111398482850161106f565b91505092915050565b60006040820190506111576000830185610fc6565b6111646020830184610fc6565b9392505050565b600082825260208201905092915050565b7f6e6f7420746865206f776e657200000000000000000000000000000000000000600082015250565b60006111b2600d8361116b565b91506111bd8261117c565b602082019050919050565b600060208201905081810360008301526111e1816111a5565b9050919050565b7f6e6f742073756666696363656e7420616d6f756e740000000000000000000000600082015250565b600061121e60158361116b565b9150611229826111e8565b602082019050919050565b6000602082019050818103600083015261124d81611211565b9050919050565b7f796f7572206e6f7420746865206c656e64657200000000000000000000000000600082015250565b600061128a60138361116b565b915061129582611254565b602082019050919050565b600060208201905081810360008301526112b98161127d565b9050919050565b7f646561646c696e65206e6f742072656163686564207965740000000000000000600082015250565b60006112f660188361116b565b9150611301826112c0565b602082019050919050565b60006020820190508181036000830152611325816112e9565b9050919050565b60006040820190506113416000830185610fad565b61134e6020830184610fad565b9392505050565b600081519050919050565b600081905092915050565b60005b8381101561138957808201518184015260208101905061136e565b60008484015250505050565b60006113a082611355565b6113aa8185611360565b93506113ba81856020860161136b565b80840191505092915050565b60006113d28284611395565b915081905092915050565b7f6e6f74207375636365737366756c207472616e73616374696f6e000000000000600082015250565b6000611413601a8361116b565b915061141e826113dd565b602082019050919050565b6000602082019050818103600083015261144281611406565b9050919050565b7f4e487b7100000000000000000000000000000000000000000000000000000000600052601160045260246000fd5b600061148382610fbc565b915061148e83610fbc565b925082820261149c81610fbc565b915082820484148315176114b3576114b2611449565b5b5092915050565b7f4e487b7100000000000000000000000000000000000000000000000000000000600052601260045260246000fd5b60006114f482610fbc565b91506114ff83610fbc565b92508261150f5761150e6114ba565b5b828204905092915050565b600061152582610fbc565b915061153083610fbc565b925082820190508082111561154857611547611449565b5b92915050565b60008151905061155d8161102c565b92915050565b60006020828403121561157957611578611027565b5b60006115878482850161154e565b91505092915050565b7f6e6f207472616e7366657220646f6e6500000000000000000000000000000000600082015250565b60006115c660108361116b565b91506115d182611590565b602082019050919050565b600060208201905081810360008301526115f5816115b9565b9050919050565b7f796f7572206e6f742074686520626f72726f7765720000000000000000000000600082015250565b600061163260158361116b565b915061163d826115fc565b602082019050919050565b6000602082019050818103600083015261166181611625565b9050919050565b7f696e636f6f726563742076616c75650000000000000000000000000000000000600082015250565b600061169e600f8361116b565b91506116a982611668565b602082019050919050565b600060208201905081810360008301526116cd81611691565b9050919050565b7f66616c696420746f2073656e6420457468657200000000000000000000000000600082015250565b600061170a60138361116b565b9150611715826116d4565b602082019050919050565b60006020820190508181036000830152611739816116fd565b9050919050565b7f7472616e7366657220746f206f776e6572206661696c65640000000000000000600082015250565b600061177660188361116b565b915061178182611740565b602082019050919050565b600060208201905081810360008301526117a581611769565b905091905056fea26469706673582212209789de7b1cc6f197331c5ffd37ed567e72384e04adb65034d287de31e84aee3b64736f6c63430008110033",
  "linkReferences": {},
  "deployedLinkReferences": {}
}